:100000000C9480040C949D040C949D040C94BA2CC4
:100010000C949D040C949D040C949D040C949D04DC
:100020000C949D040C949D040C94F4280C94CC29FD
:100030000C9495150C949D040C949D040C949D04B3
:100040000C949D040C949D040C949D040C949D04AC
:100050000C949D040C94D0280C949D040C949D0445
:100060000C949D040C949D040C949D040C949D048C
:100070000C949D040C949D040C949D040C949D047C
:100080000C949D040C949D040C949D040C949D046C
:100090000C949D040C949D040C949D040C949D045C
:1000A0000C949D040C949D040C949D041600070070
:1000B00000001A000800000005010902A1018502E4
:1000C0000901A10005091901290815002501950854
:1000D000750181020501093009311581257F9502DD
:1000E0007508810609381581257F950175088106F7
:1000F000050C0A38021581257F950175088106C017
:10010000C005010980A101850319012AB700150165
:1001100026B700950175108100C0050C0901A101E9
:10012000850419012AA002150126A0029501751067
:100130008100C005010906A101050719E029E7159D
:100140000025019508750181029501750881010559
:1001500007190029FF150026FF0095067508810084
:10016000050819012905150025019505750191025C
:10017000950175039101C009023B00020100A0FA3C
:1001800009040000010301010009211101000122FD
:100190004400070581030800010904010001030070
:1001A0000000092111010001227B000705820320C4
:1001B000000112010002000000085759000200016E
:1001C0000102000114034B00650079006200610028
:1001D0006C006C00330039000000100359006F0000
:1001E00077006B00650065007300000004030904DC
:1001F000202000202000BABB004B657920B10020F0
:10020000C0C100BEBF00484F00565400303020002F
:1002100020202020B1BCBD0042616C6CB100B4B59F
:1002200000B2B300C2C3004CB6B772B10000AE005A
:10023000AF00000000000000002F000000000700D9
:10024000070000123F123F1200242A7F2A120036B4
:10025000091E241B00182629122800000007000090
:1002600000001E214000000040211E000014083E36
:1002700008140008083E080800000030700000085C
:10028000080808080000003030000020100C0201AF
:10029000001E2925231E0000223F200000223129B4
:1002A000292600122125251A001814123F100017C4
:1002B00025252518001E25252518000131090503CF
:1002C000001A2525251A00062929291E00000033B9
:1002D00033000000003373000008141422220014BD
:1002E0001414141400222214140800020129050217
:1002F000003E59555D3E003816111638003F252541
:10030000251A001E21212112003F2121211E003F1C
:1003100025252521003F09090901001E2121291A4F
:10032000003F0404043F0000213F21000010202072
:10033000201F003F040C1221003F20202020003FFE
:100340000204023F003F020C103F001E2121211E2B
:10035000003F09090906001E2129112E003F090945
:1003600019260012252529120001013F0101001F55
:100370002020201F000718201807000F300C300F16
:100380000021120C12210003043804030031292536
:10039000232100007F4141000001020C10200000D9
:1003A00041417F00000402010204004040404040FF
:1003B00000000103040000102A2A2A3C003F2422E6
:1003C000221C001C22222224001C2222243F001C6A
:1003D0002A2A2A0C0000043E0505000C5252543E05
:1003E000003F080404380000003D000000204040A9
:1003F0003D00003F080814220000013F2000003E9D
:10040000023C023C003E0402023C001C2222221C50
:10041000007E1422221C001C2222147E003E0402B4
:10042000020400242A2A2A120000021F2200001EB1
:100430002020103E000618201806000E300C300E4A
:10044000002214081422000E5050483E0022322A86
:1004500026220008087741410000007F000000418B
:100460004177080800180408100C00000000000084
:1004700000000000000000000000000000C0F0F8D4
:100480008C86C6E7FFFFFFFFFFFFFEFCFCF8E08065
:10049000000000F0F0F00000C0E0F070700000001C
:1004A000000000000000000000000000000000004C
:1004B000000000F8F8F80000000000000000000054
:1004C000000000000000000000F8F8F80000F8F854
:1004D000F8000000000080E07078686C64C7C7C74F
:1004E000C7C7C7E73F1F0F3FFFFFFFFFFFFF3F0FDC
:1004F000000000FFFFFF1E3FFFF3E1800000F8FC5B
:10050000FE3636363EBCB8000E3EFEF080F0FE3EB3
:100510000E0000FFFFFF060606FEFEFC7000E6F67A
:10052000F63636FEFEFC000000FFFFFF0000FFFF76
:10053000FF000000003C7F6360E0C0C0C0C0C0C0DE
:10054000C0C0FFFFC06030180F03030301000000AC
:100550000000000303030000000303030300010382
:1005600003030303030301007070393F1F070100F9
:100570000000000103030303030303010000010360
:10058000030303030301000000030303000003034C
:10059000030010101000000000550000003E635DD5
:1005A0005D637F417B77413E00001C22221C003EA0
:1005B0000A003E0A00322A3C0026281E001C2A2C73
:1005C0000000003F09360000001E2121000000004D
:1005D000003F0837001E2121001E2121003F09068F
:1005E00000213F2100222519001E2121003F09364C
:1005F000003F211E00213F21000F300F003E093E29
:10060000003F063F003F20200000DA0281FFD9F1C1
:10061000DB20A4A62EAF00A0C0D30000A1C8D30049
:1006200000AED580A81F408D14200014001A0008C9
:100630000015001700000004001600070009000A5A
:100640004300001D001B00060019000500000048C3
:100650007EE300E20091222C419021130012000C55
:100660000018001C0000002D000F000E000D000BF4
:10067000440000380037003600100011000000353B
:100680000001000100010028422A002900000000AA
:10069000000000000000002B001E041F04200400C6
:1006A000000000000000000000000000000000004A
:1006B000000000000000000000000000004D00529B
:1006C000004A00000000004B004F005100500000A5
:1006D0000000004E0000000000000000000000C507
:1006E00052000000000000E1004C00340034021E03
:1006F000020000250200001F02330021020000005A
:10070000000000000000003302230231000000005E
:100710000000000000010001000100220200003181
:10072000022D020000000000002E0000002E02201A
:100730000200000000000000002D0024020000C69E
:100740005201000100010001000100390000000019
:100750000000000000000000000000000000000099
:100760000000000000000000000000000000000089
:100770000000000000010001000100000030022F15
:100780000200000000000000002702260200000016
:10079000000000000030002F0000000000000000FA
:1007A000000100010001000100010000001E001F07
:1007B000002000000000000000210022002300387B
:1007C0000000000000240025002600370000000083
:1007D00000000027000100010001000000000000EF
:1007E00000000000000000427E417E437E000000C9
:1007F000000000457E447E467E00000000000000B0
:1008000000010001000100010001000100010001E0
:1008100000010001000000010001000100010001D1
:1008200000000001000100010001000100000001C2
:1008300000010001000100010001000100010001B0
:10084000000100010000000100D200407ED1000143
:100850000000000100D500477ED400010000000127
:10086000000100010001000100010000003A003B0E
:10087000003C000000000000003D003E003F000082
:100880000000000000400041004200450000000060
:100890000043004400010001000100017E007E00D1
:1008A00000000000000000000000000000087E02C0
:1008B0007E0000000000000000097E037E000000B2
:1008C0000001000100010001000100616263646534
:1008D000666768696A6B6C6D6E6F70717273747540
:1008E000767778797A313233343536373839305251
:1008F0004542545F2D3D5B5D5C233B27602C2E2FD2
:1009000011241FBECFEFDAE0DEBFCDBF12E0A0E0C2
:10091000B1E0ECE6F0E602C005900D92A434B10718
:10092000D9F726E0A4E4B2E001C01D92A534B207D5
:10093000E1F70E940F250C9406300C9400009C01F6
:10094000860F971F6095709537FD07C06823792340
:1009500077FF09C08FEF9FE70895682B792B77FD0C
:1009600002C080E090E8089581382FEF920724F0CC
:10097000803891051CF4089581E808958FE7089563
:1009800020E287FF02C081952DE26AE00E94362EA8
:10099000905D9093400681110CC020933F0620E2A9
:1009A000822F20E280933E0620933D068DE396E061
:1009B00008956AE00E94362E905D90933F0681155F
:1009C00079F3805DEFCF8F708A3010F4805D0895E9
:1009D000895A0895A5E0B0E0E0EFF4E00C94022E0F
:1009E000FC016C837D834B8380919601811101C052
:1009F00085E08150990B21E030E002C0220F331FC7
:100A00008A95E2F780819181B9010E94442E698321
:100A10007A838083918382819381B9010E94442EDD
:100A200082839383CB010E94B404182FEC81FD8153
:100A3000858389819A810E94B404982F9195EC81D5
:100A4000FD819483FB81F11529F01195EC81FD81E5
:100A50001583848380919701813028F041F0259699
:100A6000E3E00C941E2EEC81FD811582F8CFEC8121
:100A7000FD811482F4CFA0E0B0E0E1E4F5E00C9455
:100A8000FD2DEC01688179810A811B81CB0177FF03
:100A900004C088279927861B970B980117FF04C06D
:100AA00022273327201B310B820F931F50E4F52E92
:100AB000EF2C6D018D3391053CF540ECE42E4FE3B6
:100AC000F42E8F31910504F5803191050CF04AC068
:100AD000893091050CF05EC0873091050CF04AC05A
:100AE000853091050CF04FC002978330910508F0D6
:100AF00051C0880F991F880F991FFC01E95CFD4FB9
:100B0000C080D180E280F380872F880F880B982FD8
:100B10000E940D2F9601A7010E94712F0E94D52ED1
:100B2000CB010E94B404982F990F990B8883998365
:100B3000B801812F880F880B982F0E940D2F9601E6
:100B4000A7010E94712F0E94D52ECB010E94B404F0
:100B5000982F990F990B8A839B83CDB7DEB7E8E076
:100B60000C94192E39E9E32E3FE3F32EDE2C3AE9FB
:100B7000C32ECACF2AE9C22E29E9D22E29E5E22EB8
:100B80002FE3F22EC1CF93E3E92E9FE3F92EDE2C63
:100B9000CE2CBACF80E8E82E8FE3F82E6D01B4CFCB
:100BA00080918401F901808308958091870190915B
:100BB0008801A0918901B0918A01F9018083918314
:100BC000A283B38310928701109288011092890149
:100BD00010928A0108959C0120348EE7380791F025
:100BE00068F481E0263D310528F4213D310528F4E3
:100BF00080E0089527303E47D9F7089581E02734F3
:100C00003E47FACF81E008958093360608952091FB
:100C10003706211105C021E0811120E0822F0895BF
:100C200030E002C0359527958A95E2F72170F6CF1E
:100C3000292F983090F5863080F590E036E0239F9C
:100C4000800D911D112451E081FD54E080FD550F70
:100C500082FD529523E0969587952A95E1F7FC0150
:100C6000EE0FFF1FE80FF91FE156FA4F20E030E0CA
:100C700070E04191DF01CB01022E02C0969587956D
:100C80000A94E2F78695880B8427852384278E9320
:100C90002F5F3F4F2330310561F70895292F98309A
:100CA00070F5863060F590E036E0239F800D911D51
:100CB0001124682F677023E0969587952A95E1F7B0
:100CC000FC01EE0FFF1FE80FF91FE156FA4F40E05D
:100CD00050E080E0219130E0062E02C03695279545
:100CE0000A94E2F72170042E01C0220F0A94EAF759
:100CF000822B4F5F5F4F4330510561F7089580E0CD
:100D0000089580914D0520914C05281301C0089548
:100D100001968770FACF982F909580913806892395
:100D20008093380608959235A8F5903508F0B7C03D
:100D3000803E9105F8F48D3C910508F08FC0883A0B
:100D4000910570F4853A910508F07AC081309105DB
:100D500031F09C0124503109213A310540F40895C5
:100D60009C01285A31092B31310508F46CC080E010
:100D700090E00895903458F4903208F0A6C0883E70
:100D8000910568F39C01315021153F41E7CF9F70D9
:100D9000906A0895803822E59207C8F5803632E5DA
:100DA000930708F062C0803442E59407D0F48032A3
:100DB00062E5960708F054C0282F2695269570E224
:100DC000279F90011124837041E050E0BA0102C0D6
:100DD000660F771F8A95E2F7CB01822B932B9D68D4
:100DE0000895282F26952695277070E2279F900159
:100DF0001124837041E050E0BA0102C0660F771FF2
:100E00008A95E2F7CB01822B932B9C680895803C56
:100E100072E5970748F4282F2F71803A9245D8F54C
:100E2000922F84EF906A08959C01205C3245203215
:100E3000310508F09CCF982F9F7180EF906A08953C
:100E4000849790640895885AE82FF0E0EE0FFF1F12
:100E5000E553FE4F808191819464089590650895D3
:100E60008F71982F81EF906A0895282F26952695E7
:100E7000277040E2249F90011124837041E050E0EC
:100E8000BA0102C0660F771F8A95E2F7CB01822B69
:100E9000932B9A68089580E0922F906208959C01A8
:100EA00043E0220F331F4A95E1F73F70682F6F71BF
:100EB000462F50E084FF04C070E1679FA001112419
:100EC000242F352BC901906908959F71E6CF972F84
:100ED0007830B8F46630A8F48730B0F470E026E0DB
:100EE000929F600D711D1124FB0190E3899FE00D1D
:100EF000F11D1124EE0FFF1FE55DF94F85919491CF
:100F0000089580E090E0089581E0FCCFA4E0B0E097
:100F1000ECE8F7E00C94002E89839A830091370661
:100F200080913606082B87E08B831C8210E0C80175
:100F30000B8002C0959587950A94E2F780FD0DC05D
:100F40008B819C8101978B839C83019681F7F12C87
:100F50008F2D2496E5E00C941C2EFB8069817A810C
:100F60008F2D0E9467070E949306019749F3F0CFE7
:100F70000F931F93CF93FC012781308521153105F5
:100F8000A1F48581008111818115A1F0611591F095
:100F9000C8010E948607C82F682FC8010E94180642
:100FA000B8018C2F0E9467079C01C901CF911F9146
:100FB0000F910895C8010E944E06C82FF1CFA2E0FC
:100FC000B0E0E5EEF7E00C94032E89839A830E944B
:100FD000860769817A810E9467070E94930622969C
:100FE000E2E00C941F2EFC018481811511F18781B0
:100FF00090850097A1F00E949306282F92959F70EC
:101000009630C1F088F4925F9F70923030F4203FA8
:10101000D9F060F481E0283E60F080E0089580819E
:1010200091810E94DF07E9CF9A5FEECF81E0243FF4
:10103000A1F7089591E0813F09F090E081E0283E1A
:1010400008F080E0892B089581E0089580E00895FC
:10105000F894E82FE295EF70F0E041A18F7021E065
:1010600030E0B90101C0660F8A95EAF7862F962F06
:101070009095942391A392A1892B82A378940895AB
:101080008091DB04809339018091DC0480934C01D2
:10109000089580917201811114C0809174018111B1
:1010A00010C08091730181110CC09091BB05969581
:1010B0009695969581E020916A01921380E0817067
:1010C000089581E0FCCF8091730191E0892780939E
:1010D0007301109270011092710108959091740142
:1010E000811541F09F5F90937401109270011092EE
:1010F000710108959150F7CFFC01680F791F8FEFB0
:1011000041E39191892728E030E0982F990F87FFDC
:1011100009C0892F842721503040B9F7E617F70717
:1011200081F70895892FF7CF63E070E08AED94E0AE
:101130000E947C089091D904891318C0E091DA04C8
:10114000EB30A4F488E0E802F0011124EF5EFE4FDA
:101150000680F781E02D309749F02DEF34E0409183
:10116000DC046DED74E08091DB0409950895109224
:10117000C7051092C80580917A01811104C01092B0
:10118000790110927B0180918101811104C010923C
:101190008001109282010895DC016091CA0580915E
:1011A000C905962F891301C00895292F30E0F90150
:1011B000EE0FFF1FE154FA4F408151814A175B0740
:1011C00099F487E08A9FA0018B9F500D11244B5802
:1011D0005E4F81E0FA0184839613E6CF2F5F3F4F85
:1011E00023702093CA0508952395922F9370DACF28
:1011F000A3E0B0E0EEEFF8E00C94032E209165023E
:101200003091660228173907A1F080936502909308
:101210006602E0914205F0914305309751F023E0DA
:1012200029838A839B830680F781E02DCE01019676
:1012300009952396E2E00C941F2EA3E0B0E0E3E2D0
:10124000F9E00C94032E2091630230916402281778
:101250003907A1F08093630290936402E091420504
:10126000F0914305309751F024E029838A839B83D2
:101270000680F781E02DCE01019609952396E2E0E4
:101280000C941F2E2FB7F8946091C3047091C4047E
:101290008091C5049091C6042FBF0895CF93C82FA5
:1012A000809191018C1751F00E9442096093920144
:1012B000709393018093940190939501C093910151
:1012C000CF910895809162020895FC0180915802A7
:1012D000909159028617970748F06115710529F416
:1012E0008091E8008E778093E800CB0140E0009782
:1012F00041F4411106C08091E80082FF30C080E0D7
:10130000089520911D052115B1F12530B1F12091ED
:10131000E80023FD2EC02091E80022FDECCF2091B3
:10132000E80020FFE4CF4091F3002091F200342F39
:10133000009719F02830310558F041E02830310588
:1013400009F040E02091E8002E772093E800CFCF0D
:1013500041914093F10001972F5F3F4FE9CF80917A
:101360001D05811541F0853041F08091E80083FF33
:10137000C2CF81E0089582E0089583E00895982F18
:101380009093E900891771F07091EC002091ED00C5
:101390005091F00021FD09C09F5F973089F780933D
:1013A000E9000895762F242F50E03091EB003E7F26
:1013B0003093EB003091ED003D7F3093ED003091A4
:1013C000EB0031603093EB007093EC002093ED0064
:1013D0005093F0002091EE0027FDDECF089580911C
:1013E000520287FF13C08091E80082FF06C08091FF
:1013F000E8008B778093E800089580911D058111A6
:10140000F2CF089580911D058115D9F38091E800F0
:1014100080FFF8CF8091E8008E77ECCF2091E40038
:101420003091E50095E6A9012091EC00822F8170B2
:1014300020FF06C08091E80080FF06C080E008958C
:101440002091E80022FD1AC080911D05811589F0C8
:10145000853089F08091EB0085FD0FC02091E4007C
:101460003091E50042175307F9F29150E1F684E01C
:10147000089582E0089583E0089581E00895A0E052
:10148000B0E0E5E4FAE00C94FD2DC8EDD0E08881F1
:101490008F7E8883E7EDF0E080818160808384E047
:1014A00082BF81E08093510288818E7F888302EE23
:1014B00010E0E2EE10821092DA006801CA94E1EEC8
:1014C000108288818F77888388818068888388816B
:1014D0008F7D888319BC10921D05109250021092C6
:1014E000A40410924F027601EA94E0EE80818B7F93
:1014F000808388818160888342E060E080E00E9490
:10150000BF09F60180818E7F8083E2EE8081816059
:101510008083808188608083E0EE80818E7F8083FD
:10152000888180618883CDB7DEB7E8E00C94192EFE
:10153000E8EDF0E080818E7F80831092E2001092CF
:10154000DA001092E100A0EEB0E08C9181608C9303
:1015500080818F77808319BCA7ED8C918E7F8C93CF
:1015600080818F7E808310925102089528E030E0C0
:1015700043E060E086E30E941C2A089525982D9A96
:10158000869A8E9885E08A95F1F7000083B1869857
:101590008E9A90EA9A95F1F7002485FF0394802DA6
:1015A000089580911E05811115C088EC90E020916E
:1015B000E30027FD16C0EFE3FCE93197F1F700C027
:1015C00000000197A1F782E080931E050E94980A0F
:1015D00010921D0581E090911E05913031F080E060
:1015E000089581E080931E05F5CF08950E94D10AE9
:1015F000811519F00E94420908950E944209209124
:101600003C0530913D0540913E0550913F05620FEC
:10161000731F841F951F08950E94D10A811561F0E0
:10162000E0914205F0914305309729F00190F08157
:10163000E02D0995089580E00895A8E0B0E0E3E288
:10164000FBE00C94012E89839A836B837C834D830A
:101650005E83809123050AE010E08A3010F001E0FB
:1016600010E021E02F8318866B817C8189819A812B
:10167000ED81FE81099581111BC02F8138852F5F77
:101680003F4F2F8338870217130794F0C901889FB3
:101690009001899F300D300D112480E090E045E3EA
:1016A0004A95F1F70000019682179307C1F7DCCF46
:1016B0002896E4E00C941D2E0F931F93CF93DF9395
:1016C000EB018A0190911D05943061F58093E9004A
:1016D0008FEF9091E80095FD06C095ED9A95F1F792
:1016E00000008150B1F78091E80085FF1BC00E9487
:1016F0000E0A811112C08091E80085FD06C080911C
:10170000E8008E778093E800F2CF88818093F10023
:101710000150104011F02196EECF8091E8008E77B5
:101720008093E800DF91CF911F910F910895CF939F
:10173000DF93EC0148E050E0BC0181E00E945C0BCB
:1017400088E0FE01AAE5B2E001900D928A95E1F7EA
:10175000DF91CF91089546E050E0BC0182E00E9405
:101760005C0B089543E050E0BC0182E00E945C0BFA
:101770000895A1E0B0E0EFEBFBE00C94032E898329
:101780000E94B60A89810E948E2A8FE792E0019713
:10179000F1F700C000000E94AE2A898395E09A9577
:1017A000F1F700000E94CE2A85E68A95F1F7000045
:1017B0001092420689812196E2E00C941F2EA2E04D
:1017C000B0E0E5EEFBE00C94032E89836A830E946F
:1017D000B60A898180680E948E2A8A810E948E2A98
:1017E0008AEB8A95F1F700C00E94CE2A83E492E04A
:1017F0000197F1F700C000002296E2E00C941F2E42
:10180000682F893708F068E760938F0191E0909323
:10181000900190918401911539F06150811101C0BE
:1018200065E08FE00E94DF0B089520918F01211168
:1018300001C026E0982F990F990B820F911D181661
:1018400019060CF081E00E94000C0895FB018081D4
:101850000E94000C0895ACE0B0E0E1E3FCE00C94E1
:10186000FD2D4F835887062F6987172F7A878B871F
:101870009C8780918401811509F442C080914206C1
:10188000811107C060E080E50E94DF0B81E080935A
:1018900042060E94B60A80E50E948E2A2AEB2A950B
:1018A000F1F700C00E94AE2A0E94AE2A0E94AE2A22
:1018B0007C010E94AE2AF82A0E94AE2A6C010E9486
:1018C000AE2AD82A0E94CE2A35E03A95F1F70000D8
:1018D000F894B70180918701909188010E949F043C
:1018E0008093870190938801B6018091890190913E
:1018F0008A010E949F048093890190938A017894C1
:101900000E94D10A811509F470C00E944209C0905A
:101910003906D0903A06E0903B06F0903C069B01D9
:10192000AC012C193D094E095F0969017A0138E0C3
:10193000C316D104E104F10408F457C060933906DA
:1019400070933A0680933B0690933C06C0909201B8
:10195000D0909301E0909401F09095016C197D096D
:101960008E099F09623371058105910580F41092FB
:101970008701109288011092890110928A011092B9
:101980008B0110928C0110928D0110928E01E090CB
:1019900091010E94BE0AF82EE114F1F1482FBE0118
:1019A000695F7F4F87E891E00E94EA04D09091013F
:1019B000E09084010E94BE0A91E0F82EF926DE1420
:1019C00009F449C04F2DBE01695F7F4F8BE891E05C
:1019D0000E94EA0409871A8786E0FE013796ACE97F
:1019E000B1E001900D928A95E1F709871A8786E0A8
:1019F000FE013796DE01119601900D928A95E1F76E
:101A000029813A814B815C816D817E8180E090E00B
:101A10002C96E8E00C94192E87E891E00E943B0593
:101A20008091890190918A010E94B404082F8091CD
:101A30008701909188010E94B404182FF11411F0CD
:101A400001951195109287011092880110928901D9
:101A500010928A01ABCF8BE891E00E943B05809108
:101A60008D0190918E010E94B404082F80918B010A
:101A700090918C010E94B404182FF11411F001957B
:101A8000119510928B0110928C0110928D01109281
:101A90008E01A0CFA2E0B0E0E0E5FDE00C94032EC3
:101AA0000E94142A269A0E94B60A6AE58AE30E94D6
:101AB000DF0B2FEF80E792E0215080409040E1F76C
:101AC00000C0000082E00E94B90B83E00E94B90BC5
:101AD00084E00E94B90B85E00E94B90B86E00E9469
:101AE000B90B60E080E10E94DF0B80E00E94B90B3F
:101AF000898381E00E94B90B8A830E94CE2A2981C2
:101B0000223469F48A81813051F48093840165E044
:101B10008FE00E94DF0B2296E2E00C941F2E1092C1
:101B20008401F9CF9091B20580919202981308C078
:101B30008091B305811561F090919302891741F06E
:101B4000E0914205F0914305309799F581E019C085
:101B50008091B405811521F0909194028913F0CF02
:101B60008091B605811521F0909196028913E8CFF6
:101B70008091B505811529F0909195028913E0CFE8
:101B800080E02091B20596E0E1EBF5E0DF01392F2E
:101B90001D923A95E9F72093B205A1E9B2E00190D0
:101BA0000D929A95E1F791E0211101C090E0892B07
:101BB000089582E08093B1050480F581E02D81EBEA
:101BC00095E00995C3CF815D883088F44091B205D6
:101BD00021E030E0F90101C0EE0F8A95EAF78E2F7F
:101BE000611531F04E2B4093B2050E94920D08957D
:101BF00080954823F8CFE2E7F1E083E0DF011D9212
:101C00008A95E9F7EEE6F1E084E0DF011D928A951E
:101C1000E9F7089590916901981721F0809369017F
:101C20000E94FB0D089520916B0130916C012817E3
:101C3000390731F080936B0190936C010E94FB0D8A
:101C40000895CF93C82F8091A401811511F085FDCF
:101C50000CC0C11531F0C5FF04C01092A50110924F
:101C6000A601C093A401CF910895C11511F0C5FD3F
:101C7000F8CF80E395E70E94130EEFCFA1E0B0E02C
:101C8000E4E4FEE00C94032E89830E94210E8981F6
:101C9000809337062196E2E00C941F2E21E001C0CC
:101CA000220F8A95EAF780913706822B0E943E0E1A
:101CB000089521E030E0A90101C0440F8A95EAF7B8
:101CC000842F80959091370689230E943E0E0895B7
:101CD0009091BB05809589238093BB05282F2770A1
:101CE00069F4891759F09091BD0592FF07C0869558
:101CF000869586950E94590E1092BB050895909185
:101D0000BD0592FB222720F9281779F080FB92F974
:101D10009093BD056091BC057091BD0584E090E095
:101D20000E94BF2E82E00E94680E089585E00E9406
:101D30000706811559F085E00E94590E80E395E76A
:101D40000E94130E1092A5011092A6010895809191
:101D500038069091BE05892B809346029091B90573
:101D6000911591F0892B8093460220E088E492E05F
:101D7000FC013081019631112F5F32E08E349307E0
:101D8000B9F721111092B90548E050E064E475E01C
:101D900086E492E00E94672E892BA9F088E0E6E4B1
:101DA000F2E0A4E4B5E001900D928A95E1F7E091AC
:101DB0004205F0914305309731F00280F381E02D28
:101DC00086E492E0099508950F931F93CF93C82F4F
:101DD000811549F18CEF8C0F813AB8F508E412E0D7
:101DE000F8018081C81719F1319622E0EE34F2072C
:101DF000C1F7EFEF80E0D8019C91C91791F00F5F18
:101E00001F4FEF3F19F4911101C0E82F8F5F86300B
:101E100091F7EF3F31F0FE2FFF0FFF0BEA5BFD4F15
:101E2000C2830E94A70ECF911F910F910895E8E4FD
:101E3000F2E08191C81302C0DF011E9232E0EE345D
:101E4000F307B9F70E94A70ED4CF80E28C0F883039
:101E500060F4C77081E001C0880FCA95EAF7C091AD
:101E60003806C82BC0933806DCCF8BE58C0F833047
:101E700038F42C2F2452330BC9010E94F808D3CF19
:101E8000E8E5EC0FEB3150F4F0E0EE0FFF1FEF5FF1
:101E9000FD4F808191810E941D09C5CF83E38C0F86
:101EA000833108F661E08C2F0E94E30DBCCF8115D1
:101EB000D1F19CEF980F913A70F4E8E4F2E091913F
:101EC000891302C0DF011E9292E0EE34F907B9F7E0
:101ED0000E94A70E089590E2980F983058F4982F1A
:101EE00081E091FD84E090FD880F92FD82950E9433
:101EF0008B06EECF9BE5980F933028F480E090E0BE
:101F00000E94F808089598E5980F9B3128F480E026
:101F100090E00E941D09089593E3980F933118F4FF
:101F200060E00E94E30D0895A3E0B0E0EAE9FFE07D
:101F30000C94032E89836A837B830E94E40E8FE9CD
:101F40009FE00197F1F700C000008A819B81019713
:101F50008A839B83892B99F789810E94570F239647
:101F6000E2E00C941F2E811539F090913806982BE1
:101F7000909338060E94A70E0895811521F00E94C3
:101F80008B060E94A70E0895E8E4F2E086E0DF01E8
:101F90001D928A95E9F780E090E00E94F80880E0C1
:101FA00090E00E941D091092BE050E94A70E0895A0
:101FB000109238060E94C40F2FEF84E39CE021505A
:101FC00080409040E1F700C0000088E19AE00FB641
:101FD000F894A895809360000FBE90936000FFCFA7
:101FE000AAE2B0E0E6EFFFE00C94022E82E592E078
:101FF000FC0101962091F100208322E08A359207AE
:10200000B9F780915302893009F458C0C8F482307E
:1020100009F4B5C0833009F484C0813081F1809126
:10202000E80083FFE9C080915202909153029A30F8
:1020300008F0E2C0E92FF0E0E85FFF4C0C94582E66
:102040008A3009F48BC08B3051F780915202813273
:1020500031F78091560290915702892B01F78091B8
:10206000E800877F8093E8000E94EF098091540286
:1020700080930001109238060E94C40FD0CF809147
:102080005202813A61F68091E800877F8093E800F0
:102090008091560290915702892B61F060E080E0B8
:1020A00090E070E00E9465098091E8008B77809352
:1020B000E800B5CF68E08AE592E0F3CF8091520264
:1020C000813209F0ACCF809156029091570202976D
:1020D00008F0A5CF8091E800877F8093E800809189
:1020E000E80082FF19C02091F3008091F200922F46
:1020F000029731F48091F100813011F0863021F4A3
:102100008091F100809362028091E8008B77809348
:10211000E8000E94EF0983CF80911D058111DFCF78
:102120007ECF80915202813A09F079CF8091560298
:1021300090915702892B09F072CF8091E800877F38
:102140008093E8008091E80080FFFCCF809100013F
:102150008093F1008091E8008E77D9CF8091520270
:10216000813209F05CCF8091E800877F8093E8009E
:102170000E94EF098091550280934E0250CF8091CA
:102180005202813A09F04BCF8091E800877F80931B
:10219000E8008091E80080FFFCCF80914E02D8CF0C
:1021A000803889F0823841F5809156028F708730EF
:1021B00018F58093E9008091EB0085FB882780F972
:1021C0001092E90006C08091A404880F90914F02FC
:1021D000892B9091E800977F9093E8008093F1001D
:1021E0001092F1008091E8008E7723C0811116C013
:1021F00080915402813011F18091E80083FF0AC080
:102200008091E800877F8093E8008091EB008062F6
:102210008093EB00AA96E3E00C941E2E823061F7C7
:1022200080915402811581F01092E9008091E800BC
:10223000877F8093E8000E94EF09DECF933009F09A
:1022400080E08093A404F0CF809156028F702FEF2E
:10225000280F263088F68093E9002091EB0020FFBC
:10226000E3CF933031F48091EB0080628093EB00F8
:10227000DBCF9091EB0090619093EB0021E030E098
:10228000A90101C0440F8A95EAF74093EA00109231
:10229000EA008091EB008860E9CF8111ADCF109109
:1022A00054021F778091E3008078812B8093E300B4
:1022B0008091E800877F8093E8000E94EF09809179
:1022C000E80080FFFCCF8091E30080688093E3000A
:1022D00083E0111101C082E080931D058DCF8058ED
:1022E000823008F089CF20915402309155022C3D64
:1022F00053E0350791F583E08A838AE289834FB7FB
:10230000F894DE01139620E03EE051E2E32FF0E086
:1023100050935700849120FF03C082958F703F5FD8
:102320008F708A30C0F0895C8D931D922F5F2431AD
:1023300069F74FBF8091E800877F8093E8006AE2E9
:1023400070E0CE0101960E9465098091E8008B77CC
:102350008093E80051CF805DE7CF832F90E08330FA
:10236000910519F160F48130910509F46CC0823057
:10237000910509F041CF8BE3E7E7F1E029C0209117
:102380005602309157028132910509F453C08232CE
:10239000910509F031CF2130310508F45CC009F016
:1023A0002BCF8BE7E8EBF0E013C0822F90E02130D9
:1023B00099F182309105B9F1009709F01DCFECEE4B
:1023C000F1E0E4918E2FECEEF1E0009709F414CFE8
:1023D0002091E800277F2093E80020915802309157
:1023E00059028217930708F49C0140E0211531053A
:1023F000B1F5411134C08091E80082FDA6CF8091F3
:102400001D05811509F4A1CF853009F49ECF809177
:10241000E80083FFF0CF99CFEAEDF1E0E4918E2F51
:10242000EAEDF1E0D2CFE4ECF1E0E4918E2FE4ECC0
:10243000F1E0CBCF2130310550F009F0DDCE89E05D
:10244000E2EAF1E0C5CF82E1E2EBF1E0C1CF89E061
:10245000E9E8F1E0BDCF84E4E3E3F1E0B9CF8091B6
:102460001D05811509F471CF853009F46ECF809177
:10247000E80083FD6ACF8091E80082FDBCCF8091A7
:10248000E80080FFB3CF4091F3008091F200942FD9
:102490002115310519F08830910550F041E0089779
:1024A00009F040E08091E8008E778093E8009ECFAD
:1024B00044914093F1003196215031090196E8CFC3
:1024C000803809F099CE8091E800877F8093E800FA
:1024D000809150028093F10085CE81118DCE1091B4
:1024E0005402123008F088CE8091E800877F8093F4
:1024F000E800109350020E94EF09111581F084E06A
:1025000080931D0542E061EC81E00E94BF0942E238
:1025100061EC82E00E94BF0980911D056DCE809123
:10252000E30087FDECCF81E0EBCFA5E0B0E0EBE985
:10253000F2E10C94012E2A833B830C831D83082F28
:10254000880F110B41155105B1F0F80133E0EE0F82
:10255000FF1F3A95E1F7EF5EFE4F81819281815333
:102560009B4FE0812E2F30E04E17510508F49A0161
:10257000A9010E94742EC8010E945D2D89838115D6
:1025800001F16C817D8161157105D9F0C80123E0ED
:10259000880F991F2A95E1F7FC01EF5EFE4F23811A
:1025A000422F50E06217710508F4AB018F5E9E4F19
:1025B000FC016481758161537B4F8A819B810E94FC
:1025C000742E89812596E4E00C941D2EA4E0B0E0E1
:1025D000ECEEF2E10C94012E4091BF045091C00446
:1025E0006091C1047091C2042FB7F8948091C30424
:1025F0009091C404A091C504B091C6042FBF841B60
:10260000950BA60BB70B11E084369105A105B1051A
:1026100018F10E94F60ADC01CB010296A11DB11D42
:1026200089839A83AB83BC8300E010E0980144E087
:1026300050E0BE016F5F7F4F82E00E949512182F1D
:10264000811551F00E9442096093BF047093C00449
:102650008093C1049093C204812F2496E4E00C94EB
:102660001D2EA7E0B0E0E7E3F3E10C94012E6E83AA
:102670007F8301E010E09E012B5F3F4F40E050E080
:10268000BA0180E00E949512182F811509F454C0F8
:102690004091CB045091CC046091CD047091CE0454
:1026A0002FB7F8948091C3049091C404A091C504FD
:1026B000B091C6042FBF841B950BA60BB70B8436B5
:1026C0009105A105B10548F464E070E080ED94E067
:1026D0000E947C089D81891779F104E010E09E0139
:1026E0002F5F3F4F40E050E0BA0181E00E94951219
:1026F000182F64E070E080ED94E00E947C089D81DA
:10270000981328C0111531F10E9442096093CB043F
:102710007093CC048093CD049093CE0489819A81E8
:10272000AB81BC818093C7049093C804A093C90473
:10273000B093CA0481E00FC08091D0049091D1047D
:10274000A091D204B091D30489839A83AB83BC83D4
:102750001111E4CF80E04091C7045091C80460910A
:10276000C9047091CA04EE81FF8140835183628362
:1027700073832796E4E00C941D2EA1E0B0E0E3EC17
:10278000F3E10C94FF2D2091BA0429838091D804A1
:10279000E090BB04F090BC040091BD041091BE0415
:1027A0009FB7F8944091C3045091C4046091C5044C
:1027B0007091C6049FBF4E195F09600B710B4436C0
:1027C00051056105710520F490E028171906B1F054
:1027D00000E010E09801AD01BE016F5F7F4F83E024
:1027E0000E949512811559F00E9442096093BB0422
:1027F0007093BC048093BD049093BE0481E0219645
:10280000E6E00C941B2EA9E0B0E0E9E0F4E10C94C2
:10281000FF2D8D83E62E4E835F83F22E0887198766
:10282000809123058A3028F080E02996E6E00C9418
:102830001B2E8D818830C4F319828A836B832C838D
:1028400063E070E0CE0102960E947C088983E092EA
:102850003901F0924C0100E010E0980144E050E0B2
:10286000BE016F5F7F4F84E00E9495128115E1F2F7
:102870004E2D50E098016E817F8185E00E94951277
:10288000811591F2980141E050E0BE016B5F7F4FEE
:1028900086E00E949512811539F20F2D2885398521
:1028A00040E050E0BA0187E00E949512BECFA4E05C
:1028B000B0E0EDE5F4E10C94FF2D89839A837B0170
:1028C00064E670E088E70E94FD2A8B839C8309817F
:1028D0001A81E00EF11E2B813C8137FD0DC0F801FD
:1028E000849164E670E00E946D2B8B839C830F5F64
:1028F0001F4F0E151F0579F70E940F2C81E0EB8109
:10290000FC81EF2B09F080E02496E6E00C941B2E6E
:1029100080919C048115F9F00E944209DC01CB01F1
:10292000805A9541AF4FBF4F80939D0490939E0472
:10293000A0939F04B093A0048091BA0481110BC0AE
:1029400062E070E08FE292E00E945714811519F066
:1029500081E08093BA04089580919C04811569F008
:102960008091BA04811549F062E070E08DE292E056
:102970000E94571481111092BA040895CF93DF93E7
:10298000282F81E02A3019F02D3031F480E00E94A8
:102990004115DF91CF9108958091990290919A020B
:1029A00036E0FC01AAE8B2E001900D923A95E1F719
:1029B00030EE320F343A08F456C026E0FC01119292
:1029C0002A95E9F7C0919902D0919A0246E050E029
:1029D000BE018AE892E00E94672E9E012B59324088
:1029E000892B41F1C90145E0969587954A95E1F714
:1029F00041E050E0BA0102C0660F771F8A95E2F706
:102A0000CB016091970270919802862B972BB901A8
:102A10006B5F7F4FE5E076956795EA95E1F702C039
:102A2000440F551F6A95E2F7842B952B80939702EC
:102A3000909398022A5F3F4F4091A104642F70E069
:102A4000C9010E94DF2D481B463010F4240F311DB0
:102A5000323010F020E030E025563D4F20939902AF
:102A600030939A0296CF2052330B46E0429FB0013A
:102A7000439F700D11246F5C7D4F50E00E945E2ECD
:102A8000A1CFCF93382FE0919902F0919A02EB59A0
:102A9000F2402091A104622F70E0CF010E94DF2D4F
:102AA000281B822F311569F066E00E942A2EC82F5C
:102AB000C11102C0CF910895C15080E20E94BE149E
:102AC000F7CF8E0F9F2F911D923010F080E090E095
:102AD00085569D4F8093990290939A02EBCFCF93A6
:102AE000DF93EC01FE018491811103C0DF91CF914E
:102AF00008950E94BE142196F5CF0F931F93CF9394
:102B0000DF93EC01FC0101900020E9F78F010150F7
:102B10001109C017D10728F0DF91CF911F910F91B4
:102B2000089589910E94BE14F4CF1F921FB61F9280
:102B300011248F939F93AF93BF938091A30481112E
:102B400013C08091C3049091C404A091C504B091B6
:102B5000C6044196A11DB11D8093C3049093C40483
:102B6000A093C504B093C604BF91AF919F918F917C
:102B70001F901FBE1F9018952FB7F8948091C30423
:102B80009091C404A091C504B091C6042FBF0895CC
:102B90009C014FB7F8948091C3049091C404A09114
:102BA000C504B091C6044FBF821B930B0895A0E0EB
:102BB000B0E0EDEDF5E10C94FD2D8C01DC011496F7
:102BC0008C91811509F4F1C161E0C8010E94B80738
:102BD000EC0180916901811509F467C0C032B2E54A
:102BE000DB0708F04FC0D23508F0AFC0D03508F091
:102BF0003EC0D03408F0CEC0D03208F0D2C0C83EBB
:102C0000D10580F5C03ED10508F04AC0D801149620
:102C10008C91811509F444C0CE010E94EB0581110D
:102C2000AEC0CE018D5C9109439708F4A8C00E9404
:102C30004908811135C0F8018581811561F08091C5
:102C40006A010E940706811521F080916A010E94A5
:102C5000590E0E94FB0D0E94BC1580937001909349
:102C600071011EC0CE0191509F31D0F0CFCFCE0167
:102C700045E0969587954A95E1F78F7090E0209111
:102C80006A0179C0C038B2E5DB07C0F5C036E2E5BD
:102C9000DE0708F05AC0C034F2E5DF0708F466C06A
:102CA0008091740187FD10927401C0939801D093B4
:102CB0009901D8018D919D91129780939A019093DB
:102CC0009B01FE013497E533F10508F075C0E5532B
:102CD000F74FE49115968C9120EB811511F02E2F72
:102CE000E0EBA7EAB1E080E090E03C913E135DC0EC
:102CF0008C579E4FFC0123A37E018AC0C03C22E575
:102D0000D20770F2CE01805C9245809708F07ECFAA
:102D100020916A018C2F8F7190E02817190609F015
:102D2000BFCFD80115968C910E946E08F80186815C
:102D3000807F803509F0B4CF8581811529F180919C
:102D40007401815080937401ABCF20916A018C2F64
:102D50008F7190E02817190609F0A2CFD8011596B7
:102D60008C9181119DCF0E9463089ACF20916A01B6
:102D70008C2F8F7190E02817190609F091CFF80178
:102D800085810E946E088CCF0E9463088091740137
:102D90008F5FD8CFD80116968C91803110F48D2F8B
:102DA0006CCFF8018681803160CF11960196863014
:102DB000910509F09ACFA0CFCE019052903318F42C
:102DC0000E94960E99CFC83ED105B0F4C03ED10501
:102DD00008F492CFD80115968C91811509F48CCF07
:102DE000EFCFFE01E154FE47E830F10508F08BC05B
:102DF000EE5EFF4C0C94582ECE0180549E470997EE
:102E000080F3CE019150EC2EF12C9F3108F074CF5D
:102E1000C7010E94EB05811105C0C7018D5C9109B6
:102E2000439760F4F8018581811541F080E395E7CF
:102E30000E94130E1092A5011092A601D8011596BA
:102E40008C91B9EDEB16F10408F0ECC0E1EDEE1653
:102E5000F10408F0F9C0D80115968C918115A9F0FC
:102E6000CA35BCE7DB0709F4B2C108F079C1C1304B
:102E7000FCE7DF0709F4A9C1C3302CE7D20709F446
:102E80009EC1C115DC4709F47CC1F801878190859A
:102E9000009709F4A0C10E949306D82FC92FF8010A
:102EA000C580E680E2942FE0E2228091BB05877026
:102EB000F1F0DC2CC114E1F0892F807F803451F0D7
:102EC00080E28D0F883098F0E11004C0892F807E59
:102ED000803269F08091BD0582FF09C082E00E94C6
:102EE000680E8091BB058770DD24D3948111D12CAD
:102EF000EC2FE295EF70C03C08F0EBC1F0E0E65E2D
:102F0000FF4C0C94582EF8018581811551F00E94D8
:102F1000BC158093B7059093B80581E00E944E09D7
:102F200034C08091B7059091B8050E94C8158639C4
:102F30009105C0F480EE0E94E40E8FE39CE90197B6
:102F4000F1F700C0000081ED0E94E40E81ED0E94C7
:102F5000570FAFE3BCE91197F1F700C0000080EE16
:102F60000E94570F80E0DACFF8018581811521F0AA
:102F700088EA0E94E40E09C088EA0E94570F05C043
:102F80006EE170E089EA0E94940F8091BB05877022
:102F900061F0D80115968C91811539F08091BD05AD
:102FA00082FF03C082E00E94680ECDB7DEB7E8E082
:102FB0000C94192E6EE170E08AEAE5CFD8011596DF
:102FC0008C91811511F08EEAD4CF8EEAD6CF6EE1C6
:102FD00070E08BEAD8CF6EE170E08CEAD4CFF801D4
:102FE0008581811571F084EE0E94E40E8FE39CE9E7
:102FF0000197F1F700C0000082E50E94E40E82E52F
:10300000BCCF84EEBACFD80115968C91811529F0EA
:1030100080EE0E94E40E81EEACCF80EE0E94570F4E
:1030200081EEABCFF7E0EF16FEE7FF0691F08115DA
:1030300009F411CFF701FE57E031F10508F00BCF8D
:10304000EA5DFF4C0C94582E682F8E2D0E94E30DE4
:1030500002CF0E944E09FFCE80E00E94000C109229
:10306000960180E00E940A0E8AE892E00E94130E08
:103070008CCF309196018091A2019091A30162E3DF
:1030800070E00E94DF2D8FEF860F609197016370D3
:1030900040918F0130FB47F93695337050916901AB
:1030A000550F550F532B880F880F880F582B70E042
:1030B0008FE090E00E94B32E68CF81E00E94150C53
:1030C00064CF8FEFFBCF8AE0F9CF86EFF7CF809107
:1030D000910191E0892722CF80919601811104C04E
:1030E00086E08093960151CF8F5F181654F081E0EF
:1030F000F8CF80919601811102C084E0F2CF815017
:10310000F4CF883070F387E0ECCF81E080939701B3
:103110003CCF1092970139CF82E0F8CF80916901BE
:1031200091E089270E940A0E30CF8091A2019091F0
:10313000A301C296893E23E0920710F088EE93E047
:103140008093A2019093A30120CF8091A20190913E
:10315000A301C2978436910598F784E690E0F0CFFA
:10316000CB358CE7D807A9F18091BD05002482FFFB
:103170000394802DCC35DC4709F087CE0E947F0E6A
:1031800084CE109238060E94C40FAFEFB4E3ECE097
:10319000A150B040E040E1F700C0000087E797E7AA
:1031A000809300089093010888E19AE00FB6F894A4
:1031B000A895809360000FBE90936000FFCF6FEFE3
:1031C0007FEF80E090E00E94BF2E0E94D80F81E048
:1031D000D5CF80E0D3CFD80115968C911597ED907F
:1031E000FD90811569F0C7010E948607C82F682FDE
:1031F000C7010E941806B7018C2F0E9467074BCEAB
:10320000C7010E944E06C82FF6CFFC2FFF70FF2E7D
:10321000C03118F0F29490EFF922C114B9F0F11412
:1032200069F080E28D0F883010F0D11109C08091D3
:1032300038068F29809338060E94A70E8D2F41C033
:103240008091BE058F298093BE05F6CF8D2F0E94F9
:10325000570FF114F1F180E28D0F883010F0D11189
:1032600004C08F2D0E948B0606C0F0948091BE058D
:103270008F218093BE050E94A70E2BC02C2F2F708C
:10328000F22EC07FC03219F0F29480EFF822D130D4
:1032900040F009F469C0C11409F475C0E114C9F122
:1032A000CDCF8091BD0582FD30C0C11469F0F1140D
:1032B00039F0809138068F29809338060E94A70E36
:1032C00080E00E94E40E05C080E00E94570FF110DC
:1032D000C8CFD114A9F08091BB0580FD11C0F801C1
:1032E00015828695869586950E944E0EC8010E948D
:1032F000D7158091BB058695869586950E94590EB7
:1033000060E0C8010E94B80750CEC11499F0E110E6
:1033100004C08F2D0E94B30FDCCF31E0E312D9CF70
:103320008091B9059F2D9823F91699F28F298093E2
:10333000B905CFCFE110CDCF8F2D0E94BD0F909159
:10334000B9058F2D892329F08F2D809589238093AE
:10335000B9058091BA059F2D982309F4BACFF0944E
:10336000F822F092BA05B5CFC11429F086E0E8162C
:1033700008F0AFCFCECF95E0E91608F0AACF8F2D99
:103380000E94BD0FA6CFE114D1F3D93369F4AFEF9A
:10339000B7EEE3E0A150B040E040E1F700C000002C
:1033A0008D2F0E94570F95CFFFEF26E731E0F150A8
:1033B00020403040E1F7F2CF8C2F869586958370C0
:1033C000813060F009F085CF8D2F9C2F9370C11054
:1033D00002C080E090E00E941D097BCF8D2F9C2FC2
:1033E0009370C11002C080E090E00E94F80871CF95
:1033F0006C2D8D2F0E94E30D6CCF8C2F8370A9F55F
:10340000C11028C08D2F829586958770880F880FF0
:103410004D2F4F70082E01C0440F0A94EAF72D2F4C
:103420002071D4FF06C02FE001C0220F8A95EAF771
:103430002095C695C695C370C23091F0822F842B1B
:10344000C33031F080913606C13039F0242B82230D
:103450000E9404060E940C0B3CCF842B822BF8CFD9
:10346000242B809136068227F3CFC11459F1C0FF77
:10347000F1CF8D2F829586958770880F880F4D2FFD
:103480004F70082E01C0440F0A94EAF72D2F2071C7
:10349000D4FF06C02FE001C0220F8A95EAF72095DD
:1034A000C695C695C370C23099F0822F842BC33065
:1034B00031F080913706C13041F0242B82230E94E5
:1034C0003E0EC8CF823030F2D4CF842B822BF7CF80
:1034D000242B809137068227F2CFCF70C11439F0A8
:1034E0008C2F0E944E0E8D2F0E94B30FB3CF8D2FC5
:1034F0000E94BD0F8C2F0E94590EACCFD23F89F194
:1035000070F4D03FC9F0D13F91F0C11409F45CC010
:10351000E11409F456C08D2F0E94E40E9BCFD33FD7
:1035200039F1D43F91F78091BD0582FD2CC08C2FDD
:103530008F71C11401F319C0C11481F085E0E81640
:1035400008F088CFCF7181E090E0DC0101C0AA0FC4
:10355000CA95EAF7809137068A27B1CFB6E0EB1615
:10356000EFCF8C2F8F71C110C6CF0E944E0E72CF3D
:1035700080E0C11409F4A3CFCF7181E001C0880FAE
:10358000CA95EAF79CCFC11489F0CF718C2F0E94A5
:103590004E0E8091BD0582FF07C08C2F880F880FCB
:1035A000880F83608093BB058C2FDFCF81E00E9462
:1035B000680EE2E0EE1608F44DCF82E00E94680E3D
:1035C00049CF8C2F8F71D1CFE114B9F0D93369F481
:1035D000FFEF27EE33E0F15020403040E1F700C02C
:1035E00000008D2F0E94570F35CF8FEF96E7A1E097
:1035F00081509040A040E1F7F2CF8C2F8F717BCFAC
:1036000080919C05803170F480919B05811551F06B
:10361000E0914D0520914C0530919705409196051C
:103620002E1301C00895BF0189E0E89FF001112425
:10363000DF01A25BBA4F14968C911497811561F14A
:1036400011968C911197831327C08C91841324C0F9
:1036500015968C91159781111FC012968D919D9191
:10366000A0919805B09199058A1B9B0B863991050D
:1036700098F480919C058F70806180939C05EC5A32
:10368000FA4F80818F708061808386E995E00E9487
:10369000D7150E9481060895FB013196E770C0CFCF
:1036A000AFE0B0E0E6E5FBE10C94FB2D8C0186E099
:1036B000F801DE011A9601900D928A95E1F7D80182
:1036C0001596FC90EE90C0909A05C11021C0E114AF
:1036D000E1F0F11409F47CC1C8010E94F3078115DF
:1036E00009F476C189E0F801A6E9B5E001900D92F0
:1036F0008A95E1F7B1E0EB1206C0809196059091B2
:1037000097050E94DF070E94001BEE24E3943EC051
:10371000F8019081A280B380D0909B0520919805FC
:1037200030919905A501421B530BD11409F418C11E
:103730004639510508F0ECC0E11439F33091970592
:10374000218180919C05803108F095C0EF2C2313D6
:1037500022C03091960539131EC060919D0570916D
:103760009E054781508564177507A9F4F1101AC0AA
:103770008F70806180939C0586E995E00E94D71543
:1037800080919C05D80116968C93E12C8E2D2F9656
:10379000EAE00C94172E80914D0530914C05E82FEE
:1037A000F114C9F080919C05816080939C05EDCF58
:1037B000AF01B9E0EB9FF0011124E25BFA4F6181A8
:1037C000261306C06081961303C06581611119C07C
:1037D000FA013196E770E313EBCF38131EC08A85E8
:1037E0009B850E94DF07292F22952F70903448F186
:1037F0002A5F2F702230C8F1C8010E94D715ED2C26
:10380000C5CF86E995E00E94D71589E0E6E9F5E0A5
:10381000DF011D928A95E9F7B8CFAC01B9E08B9F23
:10382000F0011124E25BFA4F8181281306C08081E8
:10383000981303C085818111A8CF4395842F877089
:10384000CCCF9F70223038F0911551F0F80196815D
:10385000903130F49BCF911519F0811509F496CF72
:10386000805E883008F492CFC7CF803F08F48ECFB7
:10387000815F8330F7CF231320C020919605291351
:103880001CC040919D0550919E05D80117962D9121
:103890003D9119974217530781F4F1100EC0169607
:1038A0008C93C8010E94D71589E0F801A6E9B5E01C
:1038B00001900D928A95E1F728CFC8010E94F30785
:1038C000811509F485C0F11409F482C080919C052A
:1038D0008032A8F0209196053091970529833A838C
:1038E000AB82BC82CD821E828F8380919D05909198
:1038F0009E0588879987CE0101960E94D71589E099
:10390000F801A6E9B5E001900D928A95E1F7FBCEAA
:1039100080919C05803108F474CFE11409F4F5CE50
:103920003091970521813213C8CF20919605291334
:10393000C4CF40919D0550919E0527813085421747
:10394000530709F0BACFF110B8CF8683C8010E949F
:10395000D71589E0A6E9B5E01D928A95E9F7D5CE9D
:1039600046395105C8F5E11409F4CFCEF11481F1BF
:10397000209197058181281321C080919605891394
:103980001DC020919D0530919E0587819085281747
:103990003907A1F490919C0590FD86CF903108F4F1
:1039A00083CF892F9683907F903F09F47ACF982F09
:1039B000907F905F8F70892B868373CFC8010E94A0
:1039C000F30781119CCF80919C05816080939C05B9
:1039D000C8010E94D71599CE89E0A6E9B5E019CFB4
:1039E000A2E1B0E0E6EFFCE10C94012E0A871B8710
:1039F0002C873D874E875F87688B798B8A8BCE01BA
:103A00000A960E94501B811128C020914C053091CC
:103A10004D0589E0FE013A96DE01119601900D9266
:103A20008A95E1F78E858115C1F0822F90E083950C
:103A3000877090E038171906D1F099E0929FD00175
:103A40001124A25BBA4FFE01319601900D929A9516
:103A5000E1F780934C050E94810680914D0590917D
:103A60004C05891314C06296E4E00C941D2E10924C
:103A700038060E94C40F10924C0510924D0589E043
:103A8000E6E9F5E0DF011D928A95E9F7E6CFB9E0B6
:103A90008B9FC0011124825B9A4F0E94501B81159D
:103AA00011F320914D052F5F3F4FC901877080931F
:103AB0004D05D3CFA0E0B0E0E0E6FDE10C94FC2D95
:103AC00080913306811569F0C09167028DE0E82E80
:103AD000F12C80913306C81748F0109233061092EB
:103AE0006702CDB7DEB7E9E00C94182EBB24B3947F
:103AF000BC0EB0926702CC2ED12CEC9EE0011124BA
:103B0000C553DA4F8C81811579F18F819885892B86
:103B100021F489859A85019659F4088119812A81B1
:103B20003B814C815D816E817F8188850E94F01C84
:103B3000EC9CF001ED9CF00D1124E553FA4F14823A
:103B40001092BE05F1100EC0CE010E94F307811144
:103B50000BC08FEF96E721E0815090402040E1F7C5
:103B600000C00000FF24F394CB2DB3CFA0E0B0E061
:103B7000ECEBFDE10C94F52DC091CA0597E0F92E10
:103B800001E010E08091C9058C1309C00E945A1D04
:103B90000E94B708CDB7DEB7E0E10C94112ED0E05B
:103BA000FE01EE0FFF1FE154FA4F80819181F89ED4
:103BB000B001F99E700D11246B587E4FFB012481DA
:103BC00021115EC060903306ABECB5E040E050E000
:103BD000912C461508F052C01B964D905D901D9794
:103BE000FB01A080B18077247A94872CE12C2E2DC4
:103BF00030E0F501EE0DF11DEE0DF11DC590D490F4
:103C00004C145D0411F0272D382DC114D10421F07E
:103C1000E394722E832EEBCF2F3F3207B9F1F801D8
:103C200001C0EE0F2A95EAF79E2A98010E2C02C0D9
:103C3000220F331F0A94E2F721503109921613061E
:103C400011F52DE0249FF001259FF00D1124E5537F
:103C5000FA4FF89ED001F99EB00D1124AB58BE4F1B
:103C600012962D913D912783308724E02483108282
:103C7000118281879287E1E01196EC930E94CC0833
:103C8000C395C3707FCF14961C9214974F5F5F4FFC
:103C90001D969FCF10923406109235061092830124
:103CA0008091C9058093CA050E94B7080E945A1DD9
:103CB0000895ACE1B0E0EFE5FEE10C94F32D4B8B01
:103CC0005C8B6D8B7E8B8F8B592E988F9111109200
:103CD000BE05188A198A1A8A86E0FE017396DE01EB
:103CE0001A9601900D928A95E1F74F88411489F058
:103CF0004E865F8661E0CE010A960E94B8075C019D
:103D000080352CE7920791F4511419F181E08093EA
:103D100083014E865F860A851B852C853D85A20121
:103D2000688979898A890E94F01CC2C081353CE784
:103D3000930729F4511469F00E944A1EEACF823594
:103D40009C4739F4511429F0809183018111F4CFFB
:103D5000DDCF55E7E52E51E0F52E312C812C912C4D
:103D600034016394D7012D913D916FEF80E09FEF77
:103D7000C82ED12CF901E80FF11DE80FF11D459176
:103D80005491A416B50611F0C62ED92E452B21F05C
:103D90008F5F6C2D9D2DECCF10E0BFEFCB16DC04B8
:103DA00009F445C0F701448110918301411110E0ED
:103DB000D70115962D909C911697511409F4FDC0CA
:103DC000111509F4FAC0211015C021E00C2C01C016
:103DD000220F0A94EAF7922B16969C932091C7051E
:103DE0003091C8052233310528F422E32093C7051A
:103DF0001092C805F30102C0EE0FFF1F8A95E2F78B
:103E0000CF010197D70116962C912817190679F43E
:103E10008091340690913506009709F44DC00E94B8
:103E2000C815C39708F448C081E0F7018483312A9C
:103E3000C4010196B7E0EB0EF11C21E0822E912C1B
:103E4000029709F08FCF511409F413C1311409F40A
:103E500010C10E94BC158093340690933506809162
:103E60003306883028F591E0980F9093330699E057
:103E7000FE013A96DE01119601900D929A95E1F7B6
:103E80004D825E82EDE08E9FC001112485539A4FD2
:103E900029E0FE013196DC0101900D922A95E1F7AF
:103EA0002FEF3FEFDC0119962D933D93AD92BD921C
:103EB0006C96E2E10C940F2E0091CA059091C90511
:103EC000802FE0E0F0E0091709F448C0A02FB0E02F
:103ED000FD01EE0FFF1FE154FA4F2081318147E0D1
:103EE000429FF001439FF00D1124EB58FE4F60817B
:103EF00071816B8F7C8F212CC12CD12CEB8DFC8D93
:103F0000EC0DF11DEC0DF11D45915491411551053C
:103F1000E1F0F7010190F081E02DE98FFA8FD12CCB
:103F200007C0E1E04617570709F0E0E02E2AD394D6
:103F3000E98DFA8DED0DF11DED0DF11D6591749179
:103F40006115710571F7C394D9CF211499F1DC146F
:103F5000C8F4E1E0D7011496EC93F7018093CA0509
:103F6000EE15FF0509F463CF892F90E0FC01EE0FF9
:103F7000FF1FE154FA4F80829182019683708093F3
:103F8000C90555CF47E0429FF001439FF00D112432
:103F9000EB58FE4F51E05483EE15FF05F9F208137C
:103FA00004C09C012395822F83709D012395022FCD
:103FB000037089CFE0E0F0E0F8CF292F30E0211046
:103FC00020C0B30102C0660F771F8A95E2F7CB01CC
:103FD00001978217930779F010E0F30102C0EE0F0A
:103FE000FF1FCA94E2F76F01C094D70116968C9117
:103FF0008C218C931CCF411581F3C4010E94CC0805
:10400000EBCFA9010C2C02C0559547950A94E2F715
:10401000C901019782239323892B41F540FF26C0D4
:10402000D70112968D919D91892BD9F0FE01319681
:1040300087E0DF011D928A95E9F70E94BC159C017B
:104040008B839C8384E08D83F70192818381792F18
:104050009887898709811A8144E05E816F810E9477
:10406000F01CD70115961C92122DB7CF142F11708A
:10407000B4CF9091CA058091C905981729F00E9484
:10408000B61D311015CF45CE0E945A1D1092340630
:10409000109235060E94B708F4CFA6E0B0E0E3E541
:1040A000F0E20C94012E0E94BC158C018091400519
:1040B000909141058017910779F019821A820E9428
:1040C000BC15BC0149815A8180E090E00E94591ED4
:1040D00000934005109341052696E4E00C941D2EB4
:1040E000AEE0B0E0E6E7F0E20C94FE2DFE01319682
:1040F00088E0DF011D928A95E9F781ECE82E81E0E6
:10410000F82E8F01ED871E87F70181917F018F3F88
:1041100009F43FC0F894E82FE295EF70F0E021A198
:104120008F7041E001C0440F8A95EAF7842F922FE7
:10413000942B91A392A18095892382A3789400C0A7
:10414000E5ECF1E031E0D12C21912F3F79F0A22F65
:10415000A295AF70A05EB0E08C9190E02F7002C08D
:10416000959587952A95E2F780FF2CC080E0D82AA4
:10417000330F8BEC91E08E179F0731F7F701829197
:104180008F3F11F00E94280890EA9A95F1F7D80124
:10419000DC920F5F1F4FE5ECF1E0EE15FF0509F033
:1041A000B3CF48E050E06D857E8584E395E00E94C2
:1041B000672E892B49F480912A058115B9F1009168
:1041C000330516C0832FD3CF88E0ED85FE85A4E3A9
:1041D000B5E001900D928A95E1F70091330581E0F9
:1041E00080932A050E94BC15809328059093290589
:1041F00080912805909129050E94C8150597B0F077
:1042000010E0055D1A4F44E050E064E375E0C8013A
:104210000E94672E892B41F084E0E4E3F5E0D801A9
:1042200001900D928A95E1F710922A050E94D10A19
:104230000091330510E0055D1A4F811509F470C037
:104240007E01F9E0EF0EF11C84E0D7011D928A9502
:10425000E9F7809123058A3078F541E353E1B7010E
:10426000C8010E941D0B811509F448C046EE52E1B9
:10427000B701C8010E941D0B811509F43FC04DEB29
:1042800053E1B701C8010E941D0B8115B9F11092CD
:1042900023058091270590E044E050E0B701855D5B
:1042A0009A4F0E94672E21E020932605892BC1F4A6
:1042B0002E96E7E00C941A2E809124059091250506
:1042C0000E94C815843F914040F6809126058115D3
:1042D00079F384E0F70111928A95E9F710922605A7
:1042E000E0912705F0E0E55DFA4F89859A85AB8579
:1042F000BC8580839183A283B383DACF8091230529
:104300008F3F39F40E94BC158093240590932505B6
:10431000DCCF8F5F809323058A3008F4BACFF2CFC9
:10432000F80180819181A281B3818093D004909320
:10433000D104A093D204B093D30464E070E080ED84
:1043400094E00E947C088093CF04E090D404F09025
:10435000D5040091D6041091D70480911F05909147
:104360002005A0912105B0912205E816F9060A075B
:104370001B07D1F0E0921F05F09220050093210564
:10438000109322050E94D10A81110EC00E94420999
:10439000E61AF70A080B190BE0923C05F0923D056E
:1043A00000933E0510933F058091D804811519F0C4
:1043B0000E9488147DCF0E94AC147ACFAEE1B0E0A9
:1043C000E4EEF1E20C94002E4091B1055091B2055B
:1043D0006091B3057091B4058091B5059091B605D3
:1043E0000E942B0C2093B1053093B2054093B30586
:1043F0005093B4056093B5057093B60586E0E1EB84
:10440000F5E0DE01179601900D928A95E1F786E0BE
:10441000FE013796DE011D9601900D928A95E1F717
:1044200026E0FE013D96CE010196DC0101900D9241
:104430002A95E1F726E0FC01A1EBB5E001900D9291
:104440002A95E1F726E0E1EBF5E0DE0159960190CF
:104450000D922A95E1F726E0FE017996DE01179686
:1044600001900D922A95E1F730919101282F1B8D33
:104470000C8D311511F000E010E019870A8786E0F5
:10448000FE013796A22FB92F01900D928A95E1F780
:1044900086E0E22FF92FDE01539601900D928A9566
:1044A000E1F786E0FE017396DE01179601900D920A
:1044B0008A95E1F786E0FE013796A1EBB5E0019021
:1044C0000D928A95E1F786E0E1EBF5E0DE011796C3
:1044D00001900D928A95E1F7F0906901F11409F4C9
:1044E0004FC080916E0190916F010E94C81520917C
:1044F0006D012817190608F043C080917001909152
:1045000071010E94C81587399105D0F1812F87FD6F
:10451000819507FD0195800F9927991F2091A5018D
:104520003091A601820F931F84309105A8F110925B
:10453000A5011092A60180916B0190916C018033CE
:10454000954721F080E395E70E94130EF0927201E7
:104550000E944908811559F10E94BC1580936E0193
:1045600090936F01109270011092710180916A0115
:104570000E940706811104C080916A010E944E0EBC
:104580000E94920D811102C08091900210929002BF
:104590006E96E5E00C941C2E28858093A5019093DF
:1045A000A601FF24F3942111D1CFF12CCFCF80911C
:1045B0006A010E940706811519F380916E0190919E
:1045C0006F010E94C81520916B0130916C01281772
:1045D0003907B0F680916A010E94590E10926E015F
:1045E00010926F01CDCF6F927F928F929F92BF9268
:1045F000CF92DF92EF92FF920F931F93CF93DF93AF
:1046000000D000D0CDB7DEB780919C04811509F4AD
:10461000B7C180918802909189020E94C815C29703
:1046200008F4CDC00E94BC15809388029093890243
:104630008BE992E08093990290939A020E94D10AAA
:10464000811509F4BAC189EF91E00E946F1588EBDA
:104650000E94BE1480919B010E94E3040E94BE143C
:1046600089EB0E94BE1480919A010E94E3040E948B
:10467000BE1486EF91E00E946F1580919801909191
:10468000990154E0969587955A95E1F70E94E304C5
:104690000E94BE14809198010E94E3040E94BE14FF
:1046A00083EF91E00E946F1587EA91E00E947D15EB
:1046B00088E192E00E946F1580919E010E94C004E3
:1046C0000E947D1580919F010E94C0040E947D156B
:1046D0008091A1010E94C0040E947D158091A001DB
:1046E0000E94C0040E947D1580E192E00E946F1537
:1046F00080918F01811101C086E00E94C004019663
:104700000E947D158CE092E00E946F1580919701C8
:10471000813028F009F446C183E092E002C089E0CC
:1047200092E00E946F1580919101811509F43DC1BD
:1047300081E292E00E946F158FEF91E00E946F1569
:1047400080919601811101C085E0805D0E94BE14B8
:1047500087E292E00E946F1521E0298389810E94FF
:104760000706811509F424C189810E94E3040E948F
:10477000BE1439813F5F3983383081F780E20E946F
:10478000BE1484E292E00E946F1580916901811548
:1047900009F410C181E292E00E946F158091A2019C
:1047A0009091A3016AE070E00E94DF2D862F0E94A5
:1047B000C00401960E947D1580E30E94BE14809182
:1047C000970290919802892B09F4C1C080919C04B2
:1047D000811509F4BCC080919B048111B8C00E946E
:1047E00088148091970290919802009709F4AFC0C5
:1047F00080FB662460F8712C10E080FD0FC041E062
:1048000050E01F5F3A01012E02C0660C771C0A942B
:10481000E2F7930128233923232B99F38091A204F3
:1048200080FFE5C0912F990F990F990F37E0390F4D
:1048300080E023E09093030180930601309304010C
:104840002093070124E630E047E050E061E071E0AA
:1048500088E70E94A22B892B09F079C030E2139FD0
:10486000A00111248091A20480FFD2C0E8E6F2E00A
:1048700080E2DF011D928A95E9F733EB832E31E068
:10488000932E0FEA11E0D4018D914D01F801619151
:104890008F01640F752F711DE82FF0E0E859FD4F6F
:1048A00080E090E027E0B22EB81ACC24C394082E02
:1048B00001C0CC0C0A94EAF7DB01A556BD4FA983D1
:1048C000BA83E12CA981BA81FD90A983BA83FC2027
:1048D0002B2D2E19277030E0BF2D022E01C0BB0FEB
:1048E0000A94EAF7DB2E319521953109277001C032
:1048F000F6942A95EAF7DF282081D22AD082E39421
:1049000028E0E212DFCF019631968830910551F60A
:1049100027EB31E02815390509F0B5CF04E610E0A2
:1049200020E230E048E652E060E488E70E94D42BC1
:10493000892B69F4F301E095F095809197029091AD
:104940009802E823F923E0939702F093980280916C
:10495000BA048115A9F00E94420900919D041091AA
:104960009E0420919F043091A004601B710B820B68
:10497000930B6F3F7F4F8F4F9F4710F40E94AC14F3
:104980000F900F900F900F90DF91CF911F910F918B
:10499000FF90EF90DF90CF90BF909F908F907F908F
:1049A0006F90089586E092E0BCCE8EE192E0C2CE98
:1049B00080EBDDCE8EE192E0EFCE80E8898380EF60
:1049C00091E00E946F159981905F9B838981A82F48
:1049D000AF5FA9830E94BE14B981EB81BE13F6CFED
:1049E00080E00E944115F981F03B49F7E8CE20E2D2
:1049F000129FC0011124880F892F881F990B919550
:104A0000282F912F9295990F90763FE1390F12CF71
:104A100045565D4F04E610E020E230E085CFCDB78B
:104A2000DEB72D970FB6F894DEBF0FBECDBF85B7AA
:104A3000806885BF85B7806885BF84B7877F84BF5E
:104A40000FB6F894A895809160008861809360000B
:104A5000109260000FBE80E890E00FB6F89480934B
:104A60006100909361000FBE86E298E0809344025B
:104A7000909345020E94980A0E943F0A8091E200AA
:104A800084608093E200789480911D05811599F0EF
:104A90008091E9001091EC008F7010FB112717F93D
:104AA000182B1092E9008091E80083FD0E94F00F1E
:104AB0001F701093E90082E084BD93E095BD9AEFEA
:104AC00097BD80936E0010923C0510923D051092A8
:104AD0003E0510923F050E94BE0A809308010E9485
:104AE000D10A81110E946B2C8091080180910801EC
:104AF00091E08927880F880F8093330594E0981BF5
:104B00009093270501EC11E065ECE62E61E0F62EAE
:104B1000D8018D918D018F3F11F00E942808E01679
:104B2000F106B1F705EC11E05BECE52E51E0F52E56
:104B3000F80181918F018F3F11F00E942808E01643
:104B4000F106B1F788E0EBE2F5E0DF01C82E1D9237
:104B5000CA94E9F7E4E3F5E0DF011D928A95E9F7ED
:104B600080E090E00E948B2E863E9E4F09F462C04A
:104B700066EE7EEF80E090E00E94BF2E60E082E073
:104B800090E00E94A12E60E083E090E00E94A12EC0
:104B90001092360660E074E184E090E00E94BF2E3F
:104BA00060E086E090E00E94A12E6FEF87E090E049
:104BB0000E94A12E60E070E0AB0188E090E00E94CE
:104BC000B32E60E084E290E00E94A12E60E087E1D5
:104BD00090E00E94A12E60E08CE090E00E94A12E67
:104BE00060E08DE090E00E94A12E19821A821B8263
:104BF0001C821D821E821F82188648E050E068E1F8
:104C000070E0CE0101960E94912E60E070E0AB0151
:104C100080E290E00E94B32E60E070E0AB018FE094
:104C200090E00E94B32E60E070E0AB0183E190E081
:104C30000E94B32E82E090E00E947D2E8093A50416
:104C400084E090E00E948B2E8093BC059093BD057C
:104C500083E090E00E947D2E0E940406809137063A
:104C60000E94210E0E94D10A91E08927880F80932B
:104C7000A20480E88093A1040E94F72A6BE070E010
:104C800080E296E00E945714811509F43FC080919C
:104C9000A20465E070E081FD21C18BE196E00E94F5
:104CA0005714811599F16DE070E089E096E00E945B
:104CB0005714811559F10E944209DC01CB01805A39
:104CC0009541AF4FBF4F80939D0490939E04A09356
:104CD0009F04B093A004EBE9F2E080E092E0DF01F2
:104CE0009C011D9221503040E1F7E0939902F0932E
:104CF0009A028FEF9FEF809397029093980281E042
:104D000080939C048093BA0410929B040E94D10A61
:104D1000811102C00E946E2C0E944A0D0E94D10A8D
:104D200081112CC080ED95E080935701909358013C
:104D30002EE020935201109253018EE28093550190
:104D40001092560145ED55E040935F01509360018C
:104D500020935A0110925B0180935D0110925E01D5
:104D600046E25CE040936701509368012093620142
:104D700010926301809365011092660180E090E0DB
:104D80000E948B2E863E9E4F79F58FE090E00E9428
:104D9000852EF62E172F082F862F8F770E94000C56
:104DA000912F9370990FF7FC91609093960112FBED
:104DB000882780F90E940A0E8AE892E0183068F08D
:104DC000212F26952695269530E02F5F3F4F42E311
:104DD000429FC001439F900D11248093A2019093A4
:104DE000A30103700093970189E091E0809342054D
:104DF0009093430580911D05853059F480911D05E0
:104E0000853009F46EC0109238060E94C40F0E94CB
:104E10000C0B0E94702006EA14E0ABE2B5E0AB8711
:104E2000BC87E7EBF1E0E987FA87BF019801F90158
:104E300091919F018C91FB01408184234EEAC42E05
:104E400044E0D42EC216D30609F4A8C011966F5FB1
:104E50007F4F981761F30E94D10A8D87E12CAB85B3
:104E6000BC85FD90AB87BC87E985FA858191E98790
:104E7000FA87F822D801BD908D01BF1431F1BF240B
:104E8000CC24C394D12C8C2D8B21C1F0BD85B115C0
:104E9000A9F0D982EA820E94BC158B839C83E1E051
:104EA000ED8391E08C2D8F2109F490E09E83498160
:104EB0005A816B817C818D810E94591ED394CC0CC8
:104EC000F6E0DF12E0CFF801F292E39488E0C82E1A
:104ED000EC10C5CF0E94F60A11E065C086E196E0AD
:104EE000DECE80911D05843041F10E94AC140E94F9
:104EF000DE211092A30448E150E080E40FB6F8945C
:104F0000A895409360000FBE8093600083B7817FB7
:104F1000846083BF83B7816083BF7894889583B7AB
:104F20008E7F83BF0FB6F894A8958091600088614A
:104F300080936000109260000FBE8091A4048115E0
:104F400009F45CCF0E947020EBE2F5E0A7EBB1E042
:104F500023E335E080819C91892331F431961196C9
:104F60002E173F07B9F74ACF80E189BD82E189BD9D
:104F700009B400FEFDCF8091D8008F7D8093D800CA
:104F80008091E00082608093E0008091E00081FDEC
:104F9000FCCF109238060E94C40F30CF98135BCF1D
:104FA0000E944D2010E00E94D10A811519F18091D4
:104FB00083018115F9F080913406909135060097B0
:104FC000C9F00E94C8152091C7053091C80528175F
:104FD000390780F49091CA058091C9059817A9F006
:104FE0000E94B61D1092C7051092C8051092340693
:104FF000109235060E94DE21811581F00E94F60A8A
:105000000E94F3220E9488140DC00E945A1D109223
:105010003406109235060E94B708ECCF0E94F322A6
:105020001111F0CF0E940C0B9091AE04891721F062
:105030008093AE040E9442090E94D10A811509F4AE
:10504000D9CE0E9442092091B504211144C000919B
:10505000B1041091B2042091B3043091B4046B01F7
:105060007C01C01AD10AE20AF30A86019701043FC3
:1050700011402105310578F16093B1047093B204B9
:105080008093B3049093B4048091AF049091B004E2
:1050900001968093AF049093B00419828E010F5F44
:1050A0001F4F21E040E050E060E088E00E940314E0
:1050B000811106C08091AF049091B0040A975CF012
:1050C00081E08093B504809385019981911101C09D
:1050D00080E08093860180918601811509F48ACE53
:1050E0000E9442096B017C018091B6049091B70443
:1050F000A091B804B091B9049601A701281B390BFF
:105100004A0B5B0BC901DA010497A105B10580F1D7
:1051100019821A821B821C828E010F5F1F4F24E0AE
:1051200040E050E060E089E00E9403148115C1F086
:1051300069817A8180918B0190918C010E949F04FA
:1051400080938B0190938C016B817C8180918D0188
:1051500090918E010E949F0480938D0190938E0107
:10516000C092B604D092B704E092B804F092B904A9
:1051700080919001811509F43DCE80918F01898342
:1051800000E010E020E0AE014F5F5F4F61E08AE099
:105190000E940314811509F42DCE109290012ACE9D
:1051A00078941F921FB61F9211248F939F93AF93F1
:1051B000BF938091C3049091C404A091C504B091A1
:1051C000C6040196A11DB11D8093C3049093C4042D
:1051D000A093C504B093C604BF91AF919F918F91E6
:1051E0001F901FBE1F9018951F920F920FB60F921F
:1051F00011242F933F934F935F936F937F938F93DC
:105200009F93AF93BF93EF93FF938091E10082FF51
:1052100009C08091E20082FF05C08091E1008B7F90
:105220008093E1008091DA0080FF24C08091D80053
:1052300080FF20C08091DA008E7F8093DA00809119
:10524000D90080FF9BC080E189BD82E189BD09B49E
:1052500000FEFDCF81E080931D05809151028111F8
:1052600009C00E94980A0E943F0A8091E20084606F
:105270008093E2008091E10080FF17C08091E200FE
:1052800080FF13C08091E2008E7F8093E2008091C6
:10529000E20080618093E2008091D8008062809378
:1052A000D80019BC85E080931D058091E10084FF42
:1052B00029C08091E20084FF25C080E189BD82E1A0
:1052C00089BD09B400FEFDCF8091D8008F7D809309
:1052D000D8008091E1008F7E8093E1008091E20010
:1052E0008F7E8093E2008091E20081608093E200F3
:1052F00080915002811509F447C084E080931D0518
:1053000080911D058091E10083FF27C08091E2001C
:1053100083FF23C08091E100877F8093E10082E0DA
:1053200080931D05109250028091E1008E7F809342
:10533000E1008091E2008E7F8093E2008091E200A4
:1053400080618093E20042E060E080E00E94BF095B
:105350008091F00088608093F000FF91EF91BF9101
:10536000AF919F918F917F916F915F914F913F91FD
:105370002F910F900FBE0F901F90189519BC10928F
:105380001D051092510276CF8091E30087FF02C085
:1053900083E0B4CF81E0B2CF1F920F920FB60F928D
:1053A0001124EF92FF920F931F932F933F934F93EC
:1053B0005F936F937F938F939F93AF93BF93CF939D
:1053C000EF93FF9309EE10E0F8018081C091EC00AB
:1053D0008F70C0FBCC27C7F9C82B1082E0EF80810B
:1053E000877F808378940E94F00FF8011082E0EFAD
:1053F000808188608083CF70E9EEC083FF91EF9158
:10540000CF91BF91AF919F918F917F916F915F915C
:105410004F913F912F911F910F91FF90EF900F901F
:105420000FBE0F901F901895289A219A229A2398C0
:105430002B9880E58CBD08959091AE019F3F09F0B7
:105440006BC08F3F09F468C06295660F607E609301
:105450004406423009F43FC0433009F440C0646060
:105460004130D1F141E050E042175307D0F1909123
:1054700044064032510509F44AC0B0F548305105A0
:1054800009F440C04031510509F43FC04230510594
:10549000A9F19CB520914406922B9CBD90914306A6
:1054A000911519F09DB591609DBD8093AE01E82FD7
:1054B000E295EF70F0E031A1282F2F7081E001C05C
:1054C000880F2A95EAF7382B31A392A1809589237A
:1054D00082A381E00895686060934406C3CF6C6046
:1054E000FBCF440F551FC0CF4034510599F0936056
:1054F0004038510571F690934406CBCF91E09093DC
:105500004306C7CF21E0209343069160F4CF21E00A
:10551000209343069260EFCF80E00895A2E0B0E0D0
:10552000E4E9FAE20C94032E8EBD0E94BC15898337
:105530009A830DB407FE06C08EB590E02296E2E095
:105540000C941F2E0E94BC1529813A81821B930B5B
:105550008436910570F38EEF9FEFF0CFA2E0B0E0BC
:10556000E4EBFAE20C94032E1EBC0E94BC15898366
:105570009A830DB407FE06C08EB590E02296E2E055
:105580000C941F2E0E94BC1529813A81821B930B1B
:105590008436910570F38EEF9FEFF0CF8091AE01CE
:1055A0008F3F21F1E82FE295EF70F0E041A18F707D
:1055B00021E030E0B90101C0660F8A95EAF7862F35
:1055C000942F962B91A392A1892B82A38FEF809386
:1055D000AE018DB58E7F8DBD9CB5809144068095C2
:1055E00089238CBD109244061092430608951092B0
:1055F000B9008CE08093B8000895A4E0B0E0E3E047
:10560000FBE20C94FE2DD82E6B837C830E94BC158C
:1056100089839A832B813C8191E0E92EF12C2431FE
:10562000310560F085E0E82EF12C2F3F320731F094
:10563000C90164E170E00E94DF2D7B011092BC0083
:1056400094EA9093BC000E94BC158C018091BC0030
:1056500087FF0CC08091B900887F883009F1809164
:10566000B900887F8031E1F00FEF07C0C8010E94C8
:10567000C815E816F90650F70EEF1FEF8B819C81D5
:105680000196E1F289819A810E94C8152B813C81A3
:105690002817390798F6C8012496E7E00C941A2ECB
:1056A000D092BB0024E82093BC000E94BC158C0162
:1056B0008091BC0087FF0AC09091B900987F983113
:1056C00011F0903489F600E010E0E5CFC8010E94A7
:1056D000C815E816F90660F7CFCFA4E0B0E0E3E71D
:1056E000FBE20C94032E6B837C838093BB0084E8E5
:1056F0008093BC000E94BC1589839A838091BC0072
:1057000087FF0FC02091B900287F81E090E0283208
:1057100009F480E09195819591092496E2E00C943A
:105720001F2E2B813C812F3F3F4F41F389819A816E
:105730000E94C8152B813C8128173907F8F68EEF97
:105740009FEFEBCFA6E0B0E0E8EAFBE20C94012E7D
:105750006B837C838A0129833A83B9010E94FD2AE5
:105760009C018B818D839C819E83ED81FE810E0F38
:105770001F1F8D819E818017910719F0211531051A
:1057800041F084E98093BC00C9012696E4E00C94C2
:105790001D2E69817A81ED81FE818191ED83FE83E9
:1057A0000E946D2B9C01E5CFA6E0B0E0EAEDFBE2A4
:1057B0000C94FF2D6D8349835A832B833C8378019E
:1057C000B8010E94FD2AAC01892BB9F4B8018D8182
:1057D0000E946D2BAC0189818D839A819E830B8100
:1057E0001C81ED81FE810E0F1F1F8D819E81801710
:1057F000910719F04115510541F084E98093BC00EF
:10580000CA012696E6E00C941B2EB701ED81FE81BD
:105810008191ED83FE830E946D2BAC01E6CF84E97C
:105820008093BC0008958EE14A9B02C08150E1F74D
:105830004A9BFECF08955A9880E28A95F1F75A9ACA
:105840000895FC012BE02A95F1F728E080E090E034
:1058500031E040E14A95F1F7880F4A9B02C0816030
:10586000932742E04A95F1F7000040E14A95F1F7AD
:10587000215079F720E12A95F1F729B132E03A95E4
:10588000F1F7000040E14A95F1F731E022FD93275E
:105890002081920F90830895A1E0B0E0E2E5FCE260
:1058A0000C94FF2D19828C017C01E60EF11C0E94E4
:1058B000132CCE0101960E94212CF80181938F01B7
:1058C000EE15FF05A1F781E09981911180E0219605
:1058D000E6E00C941B2E529A5A9A089552985A9ABE
:1058E000EA9AE9E6F0E080818F7C80830895615038
:1058F000770B91E001C0990F6A95EAF7692F90E064
:1059000021E0611108C0911591F05A9A80E28A95C0
:10591000F1F75A980895362F382339F05A9A92277A
:1059200030E23A95F1F76695ECCF5A98F9CF5A984C
:10593000EDCFA3E0B0E0EFE9FCE20C94012E8A8306
:105940009B830A811B81060F111DEA81FB818191D6
:10595000EA83FB8389830E941B2C68E089810E9473
:10596000772CEA81FB81E017F10779F72396E4E0D1
:105970000C941D2E1F920F920FB60F9211240F93AD
:105980001F932F933F934F935F936F937F938F93C7
:105990009F93AF93BF93EF93FF93CF93DF930F92B8
:1059A000CDB7DEB719820E94132CCE0101960E945A
:1059B000212C082F069506950695282F22952570EF
:1059C000902F9570920F292F237096959695920F90
:1059D000982797708981892B09F059C00C3008F0FD
:1059E00056C080E18A95F1F75A9A529A82E08A95D8
:1059F000F1F700C05A9888E0089F80011124D8016F
:105A0000AF5EBE4F1696ED91FD911897309791F0CD
:105A10006091BF017091C00114962D913D91260FA8
:105A2000371F15978D919D91680F791F4C91139792
:105A30008C910995F801EF5EFE4F6381611551F07D
:105A40002091BF013091C00184819581820F931F05
:105A50000E94992C0E941B2C80E18A95F1F75A989C
:105A600052985A9A80E18A95F1F7F801EF5EFE4F5D
:105A70006081611551F02091BF013091C001818199
:105A80009281820F931F0E944C2C0E94132C0F9026
:105A9000DF91CF91FF91EF91BF91AF919F918F9146
:105AA0007F916F915F914F913F912F911F910F9136
:105AB0000F900FBE0F901F901895A4E0B0E0E3E6A2
:105AC000FDE20C94032E89839A838C3091050CF0AF
:105AD0006FC0F894529A5A9845E04A95F1F7000041
