:100000000C9489040C94A6040C94A6040C94412D21
:100010000C94A6040C94A6040C94A6040C94A604B8
:100020000C94A6040C94A6040C947B290C94532ADB
:100030000C94DC150C94A6040C94A6040C94A60451
:100040000C94A6040C94A6040C94A6040C94A60488
:100050000C94A6040C9457290C94A6040C94A604A2
:100060000C94A6040C94A6040C94A6040C94A60468
:100070000C94A6040C94A6040C94A6040C94A60458
:100080000C94A6040C94A6040C94A6040C94A60448
:100090000C94A6040C94A6040C94A6040C94A60438
:1000A0000C94A6040C94A6040C94A6043600370005
:1000B00000000E000F0000000C00120000001600EF
:1000C000070000001A000800000005010902A10154
:1000D00085020901A100050919012908150025015A
:1000E0009508750181020501093009311581257FC7
:1000F00095027508810609381581257F95017508D7
:100100008106050C0A38021581257F950175088145
:1001100006C0C005010980A101850319012AB700A5
:10012000150126B700950175108100C0050C090165
:10013000A101850419012AA002150126A00295013A
:1001400075108100C005010906A101050719E02904
:10015000E715002501950875018102950175088153
:10016000010507190029FF150026FF0095067508EF
:10017000810005081901290515002501950575015E
:100180009102950175039101C009023B0002010033
:10019000A0FA090400000103010100092111010076
:1001A0000122440007058103080001090401000140
:1001B00003000000092111010001227B00070582D4
:1001C000032000011201000200000008575900023C
:1001D00000010102000114034B0065007900620078
:1001E00061006C006C0033003900000010035900FE
:1001F0006F0077006B00650065007300000004036A
:100200000904202000202000BABB004B657920B1F2
:100210000020C0C100BEBF00484F0056540030301F
:10022000200020202020B1BCBD0042616C6CB100D8
:10023000B4B500B2B300C2C3004CB6B772B100008F
:10024000AE00AF00000000000000002F0000000022
:100250000700070000123F123F1200242A7F2A12D3
:100260000036091E241B001826291228000000074A
:10027000000000001E214000000040211E0000146C
:10028000083E08140008083E08080000003070000E
:100290000008080808080000003030000020100C9A
:1002A0000201001E2925231E0000223F20000022FB
:1002B0003129292600122125251A001814123F1071
:1002C000001725252518001E2525251800013109B0
:1002D0000503001A2525251A00062929291E0000D4
:1002E000003333000000003373000008141422228E
:1002F00000141414141400222214140800020129FA
:100300000502003E59555D3E003816111638003F73
:100310002525251A001E21212112003F2121211E01
:10032000003F25252521003F09090901001E212143
:10033000291A003F0404043F0000213F210000105F
:100340002020201F003F040C1221003F20202020ED
:10035000003F0204023F003F020C103F001E21211B
:10036000211E003F09090906001E2129112E003F08
:10037000090919260012252529120001013F010152
:10038000001F2020201F000718201807000F300C26
:10039000300F0021120C1221000304380403003135
:1003A0002925232100007F4141000001020C10207B
:1003B000000041417F00000402010204004040406F
:1003C000404000000103040000102A2A2A3C003F9C
:1003D0002422221C001C22222224001C2222243F30
:1003E000001C2A2A2A0C0000043E0505000C52526B
:1003F000543E003F080404380000003D0000002087
:1004000040403D00003F080814220000013F20004A
:10041000003E023C023C003E0402023C001C222240
:10042000221C007E1422221C001C2222147E003E6C
:100430000402020400242A2A2A120000021F2200B9
:10044000001E2020103E000618201806000E300C5A
:10045000300E002214081422000E5050483E002294
:10046000322A26220008087741410000007F000060
:1004700000414177080800180408100C0000000033
:10048000000000000000000000000000000000C0AC
:10049000F0F88C86C6E7FFFFFFFFFFFFFEFCFCF8CD
:1004A000E080000000F0F0F00000C0E0F0707000AC
:1004B000000000000000000000000000000000003C
:1004C0000000000000F8F8F8000000000000000044
:1004D0000000000000000000000000F8F8F8000034
:1004E000F8F8F8000000000080E07078686C64C7DD
:1004F000C7C7C7C7C7E73F1F0F3FFFFFFFFFFFFF8C
:100500003F0F000000FFFFFF1E3FFFF3E1800000F0
:10051000F8FCFE3636363EBCB8000E3EFEF080F0EB
:10052000FE3E0E0000FFFFFF060606FEFEFC70000A
:10053000E6F6F63636FEFEFC000000FFFFFF000088
:10054000FFFFFF000000003C7F6360E0C0C0C0C050
:10055000C0C0C0C0FFFFC06030180F03030301001C
:100560000000000000030303000000030303030076
:10057000010303030303030301007070393F1F07E6
:100580000100000000010303030303030301000053
:10059000010303030303030100000003030300003E
:1005A0000303030010101000000000550000003E7F
:1005B000635D5D637F417B77413E00001C22221C0E
:1005C000003E0A003E0A00322A3C0026281E001C7B
:1005D0002A2C0000003F09360000001E21210000E7
:1005E0000000003F0837001E2121001E2121003F8E
:1005F000090600213F2100222519001E2121003F6C
:100600000936003F211E00213F21000F300F003E20
:10061000093E003F063F003F20200000DA0281FF34
:10062000D9F1DB20A4A62EAF00A0C0D30000A1C842
:10063000D30000AED580A81F408D14200014001AEE
:10064000000800150017000000040016000700094C
:10065000000A4300001D001B0006001900050000F1
:1006600000487EE300E20091222C41902113001209
:10067000000C0018001C0000002D000F000E000DE3
:10068000000B440000380037003600100011000055
:1006900000350001000100010028422A0029000065
:1006A0000000000000000000002B001E041F0420BA
:1006B0000400000000000000000000000000000036
:1006C0000000000000000000000000000000004DDD
:1006D0000052004A00000000004B004F0051005043
:1006E00000000000004E00000000000000000000BC
:1006F00000C552000000000000E1004C003400344E
:10070000021E020000250200001F02330021020029
:10071000000000000000000000330223023100004E
:1007200000000000000000010001000100220200A2
:100730000031022D020000000000002E0000002EFB
:1007400002200200000000000000002D0024020032
:1007500000C6520100010001000100010039000043
:100760000000000000000000000000000000000089
:100770000000000000000000000000000000000079
:100780000000000000000001000100010000003036
:10079000022F0200000000000000002702260200D5
:1007A0000000000000000030002F000000000000EA
:1007B0000000000100010001000100010000001E16
:1007C000001F002000000000000000210022002384
:1007D000003800000000002400250026003700003B
:1007E00000000000002700010001000100000000DF
:1007F000000000000000000000427E417E437E00B9
:100800000000000000457E447E467E00000000009F
:1008100000000001000100010001000100010001D1
:1008200000010001000100000001000100010001C1
:1008300000010000000100010001000100010000B2
:1008400000010001000100010001000100010001A0
:100850000001000100010000000100D200407ED133
:1008600000010000000100D500477ED40001000017
:100870000001000100010001000100010000003A38
:10088000003B003C000000000000003D003E003F37
:100890000000000000000040004100420045000050
:1008A00000000043004400010001000100017E003F
:1008B0007E000000000000000000000000000008B2
:1008C0007E027E0000000000000000097E037E0022
:1008D00000000001000100010001000100616263ED
:1008E0006465666768696A6B6C6D6E6F7071727350
:1008F0007475767778797A313233343536373839DA
:1009000030524542545F2D3D5B5D5C233B27602C9C
:100910002E2F11241FBECFEFDAE0DEBFCDBF12E0D5
:10092000A0E0B1E0EAE7F1E602C005900D92A8353B
:10093000B107D9F726E0A8E5B2E001C01D92A935BC
:10094000B207E1F70E9496250C948D300C940000BC
:100950009C01860F971F6095709537FD07C068232F
:10096000792377FF09C08FEF9FE70895682B792BD4
:1009700077FD02C080E090E8089581382FEF92075C
:1009800024F0803891051CF4089581E808958FE7DC
:10099000089520E287FF02C081952DE26AE00E945F
:1009A000BD2E905D9093540681110CC02093530688
:1009B00020E2822F20E2809352062093510681E5A7
:1009C00096E008956AE00E94BD2E905D90935306D4
:1009D000811579F3805DEFCF8F708A3010F4805DE0
:1009E0000895895A0895A5E0B0E0E9EFF4E00C9489
:1009F000892EFC016C837D834B838091AB01811137
:100A000001C085E08150990B21E030E002C0220F47
:100A1000331F8A95E2F780819181B9010E94CB2E24
:100A200069837A838083918382819381B9010E9453
:100A3000CB2E82839383CB010E94BD04182FEC81BF
:100A4000FD81858389819A810E94BD04982F9195AB
:100A5000EC81FD819483FB81F11529F01195EC81E6
:100A6000FD81158384838091AC01813028F041F0B1
:100A70002596E3E00C94A52EEC81FD811582F8CF3C
:100A8000EC81FD811482F4CFA0E0B0E0EAE4F5E06F
:100A90000C94842EEC01688179810A811B81CB0141
:100AA00077FF04C088279927861B970B980117FFAB
:100AB00004C022273327201B310B820F931F50E4E1
:100AC000F52EEF2C6D018D3391053CF540ECE42EB5
:100AD0004FE3F42E8F31910504F5803191050CF030
:100AE0004AC0893091050CF05EC0873091050CF04A
:100AF0004AC0853091050CF04FC0029783309105B4
:100B000008F051C0880F991F880F991FFC01E45B02
:100B1000FD4FC080D180E280F380872F880F880B43
:100B2000982F0E94942F9601A7010E94F82F0E94EF
:100B30005C2FCB010E94BD04982F990F990B8883DD
:100B40009983B801812F880F880B982F0E94942FCA
:100B50009601A7010E94F82F0E945C2FCB010E94F2
:100B6000BD04982F990F990B8A839B83CDB7DEB76D
:100B7000E8E00C94A02E39E9E32E3FE3F32EDE2CBF
:100B80003AE9C32ECACF2AE9C22E29E9D22E29E595
:100B9000E22E2FE3F22EC1CF93E3E92E9FE3F92E4D
:100BA000DE2CCE2CBACF80E8E82E8FE3F82E6D0134
:100BB000B4CF80919901F9018083089580919C01BF
:100BC00090919D01A0919E01B0919F01F9018083B8
:100BD0009183A283B38310929C0110929D01109285
:100BE0009E0110929F0108959C0120348EE73807E2
:100BF00091F068F481E0263D310528F4213D31056E
:100C000028F480E0089527303E47D9F7089581E021
:100C100027343E47FACF81E0089580934A0608952D
:100C200020914B06211105C021E0811120E0822F87
:100C3000089530E002C0359527958A95E2F7217036
:100C4000F6CF292F983090F5863080F590E036E089
:100C5000239F800D911D112451E081FD54E080FD02
:100C6000550F82FD529523E0969587952A95E1F7D9
:100C7000FC01EE0FFF1FE80FF91FED54FA4F20E0C3
:100C800030E070E04191DF01CB01022E02C0969569
:100C900087950A94E2F78695880B84278523842715
:100CA0008E932F5F3F4F2330310561F70895292F31
:100CB000983070F5863060F590E036E0239F800D27
:100CC000911D1124682F677023E0969587952A95CA
:100CD000E1F7FC01EE0FFF1FE80FF91FED54FA4F8B
:100CE00040E050E080E0219130E0062E02C03695D1
:100CF00027950A94E2F72170042E01C0220F0A946E
:100D0000EAF7822B4F5F5F4F4330510561F708953B
:100D100080E008958091610520916005281301C04D
:100D2000089501968770FACF982F909580914C0680
:100D3000892380934C0608959235A8F5903508F0E4
:100D4000B7C0803E9105F8F48D3C910508F08FC046
:100D5000883A910570F4853A910508F07AC081309F
:100D6000910531F09C0124503109213A310540F4BC
:100D700008959C01285A31092B31310508F46CC0C3
:100D800080E090E00895903458F4903208F0A6C0C6
:100D9000883E910568F39C01315021153F41E7CF12
:100DA0009F70906A0895803822E59207C8F58036D2
:100DB00032E5930708F062C0803442E59407D0F42E
:100DC000803262E5960708F054C0282F26952695B4
:100DD00070E2279F90011124837041E050E0BA0136
:100DE00002C0660F771F8A95E2F7CB01822B932B07
:100DF0009D680895282F26952695277070E2279FD5
:100E000090011124837041E050E0BA0102C0660FE6
:100E1000771F8A95E2F7CB01822B932B9C6808956C
:100E2000803C72E5970748F4282F2F71803A92454D
:100E3000D8F5922F84EF906A08959C01205C32458A
:100E40002032310508F09CCF982F9F7180EF906A77
:100E50000895849790640895885AE82FF0E0EE0F83
:100E6000FF1FE052FE4F8081918194640895906548
:100E700008958F71982F81EF906A0895282F2695F5
:100E80002695277040E2249F90011124837041E051
:100E900050E0BA0102C0660F771F8A95E2F7CB01D6
:100EA000822B932B9A68089580E0922F9062089588
:100EB0009C0143E0220F331F4A95E1F73F70682FF2
:100EC0006F71462F50E084FF04C070E1679FA0015E
:100ED0001124242F352BC901906908959F71E6CF05
:100EE000972F7830B8F46630A8F48730B0F470E00B
:100EF00026E0929F600D711D1124FB0190E3899FF4
:100F0000E00DF11D1124EE0FFF1FE35CF94F8591F9
:100F10009491089580E090E0089581E0FCCFA4E0F2
:100F2000B0E0E5E9F7E00C94872E89839A8300917D
:100F30004B0680914A06082B87E08B831C8210E0C9
:100F4000C8010B8002C0959587950A94E2F780FD51
:100F50000DC08B819C8101978B839C83019681F7C7
:100F6000F12C8F2D2496E5E00C94A32EFB80698153
:100F70007A818F2D0E9470070E949C06019749F389
:100F8000F0CF0F931F93CF93FC012781308521155C
:100F90003105A1F48581008111818115A1F06115D0
:100FA00091F0C8010E948F07C82F682FC8010E94C6
:100FB0002106B8018C2F0E9470079C01C901CF91B6
:100FC0001F910F910895C8010E945706C82FF1CFB5
:100FD000A2E0B0E0EEEEF7E00C948A2E89839A83CB
:100FE0000E948F0769817A810E9470070E949C0687
:100FF0002296E2E00C94A62EFC018481811511F169
:10100000878190850097A1F00E949C06282F9295D9
:101010009F709630C1F088F4925F9F70923030F4E8
:10102000203FD9F060F481E0283E60F080E0089530
:10103000808191810E94E807E9CF9A5FEECF81E03D
:10104000243FA1F7089591E0813F09F090E081E00D
:10105000283E08F080E0892B089581E0089580E023
:101060000895F894E82FE295EF70F0E041A18F70B9
:1010700021E030E0B90101C0660F8A95EAF7862FBA
:10108000962F9095942391A392A1892B82A3789473
:1010900008958091EF04809339018091F00480934A
:1010A0004C01089580917201811114C080917401E6
:1010B000811110C08091730181110CC09091CF05F6
:1010C00096959695969581E020916A01921380E01D
:1010D0008170089581E0FCCF8091730191E08927B0
:1010E0008093730110927001109271010895909194
:1010F0007401811541F09F5F90937401109270010B
:101100001092710108959150F7CFFC01680F791F7B
:101110008FEF41E39191892728E030E0982F990FD4
:1011200087FF09C0892F842721503040B9F7E6177F
:10113000F70781F70895892FF7CF63E070E08EEE0F
:1011400094E00E9485089091ED04891318C0E09105
:10115000EE04EB30A4F488E0E802F0011124EF5E25
:10116000FE4F0680F781E02D309749F021E135E010
:101170004091F00461EF74E08091EF0409950895C7
:101180001092DB051092DC05E5E7F1E08581811125
:1011900002C014821682379681E0E839F807B1F769
:1011A0000895DC016091DE058091DD05962F89139D
:1011B00001C00895292F30E0F901EE0FFF1FED5215
:1011C000FA4F408151814A175B0799F487E08A9F63
:1011D000A0018B9F500D11244B585E4F81E0FA0106
:1011E00084839613E6CF2F5F3F4F23702093DE0555
:1011F00008952395922F9370DACFA3E0B0E0E3E057
:10120000F9E00C948A2E2091790230917A02281705
:101210003907A1F08093790290937A02E091560504
:10122000F0915705309751F023E029838A839B83FF
:101230000680F781E02DCE01019609952396E2E024
:101240000C94A62EA3E0B0E0E8E2F9E00C948A2E1C
:10125000209177023091780228173907A1F0809306
:10126000770290937802E0915605F09157053097F8
:1012700051F024E029838A839B830680F781E02D47
:10128000CE01019609952396E2E00C94A62E2FB785
:10129000F8946091D7047091D8048091D90490910A
:1012A000DA042FBF0895CF93C82F8091A6018C1721
:1012B00051F00E9447096093A7017093A8018093A1
:1012C000A9019093AA01C093A601CF91089580919E
:1012D00076020895FC0180916C0290916D02861750
:1012E000970748F06115710529F48091E8008E7721
:1012F0008093E800CB0140E0009741F4411106C023
:101300008091E80082FF30C080E00895209131058F
:101310002115B1F12530B1F12091E80023FD2EC057
:101320002091E80022FDECCF2091E80020FFE4CFDF
:101330004091F3002091F200342F009719F02830EB
:10134000310558F041E02830310509F040E02091A6
:10135000E8002E772093E800CFCF41914093F10031
:1013600001972F5F3F4FE9CF80913105811541F003
:10137000853041F08091E80083FFC2CF81E008957D
:1013800082E0089583E00895982F9093E9008917EB
:1013900071F07091EC002091ED005091F00021FD72
:1013A00009C09F5F973089F78093E9000895762FF1
:1013B000242F50E03091EB003E7F3093EB003091D2
:1013C000ED003D7F3093ED003091EB0031603093C4
:1013D000EB007093EC002093ED005093F00020910F
:1013E000EE0027FDDECF08958091660287FF13C0CF
:1013F0008091E80082FF06C08091E8008B7780939F
:10140000E8000895809131058111F2CF089580910F
:1014100031058115D9F38091E80080FFF8CF8091E4
:10142000E8008E77ECCF2091E4003091E50095E65E
:10143000A9012091EC00822F817020FF06C08091CD
:10144000E80080FF06C080E008952091E80022FDBA
:101450001AC080913105811589F0853089F080911D
:10146000EB0085FD0FC02091E4003091E5004217AC
:101470005307F9F29150E1F684E0089582E008956F
:1014800083E0089581E00895A0E0B0E0EAE4FAE0A6
:101490000C94842EC8EDD0E088818F7E8883E7EDA0
:1014A000F0E080818160808384E082BF81E080936E
:1014B000650288818E7F888302EE10E0E2EE108262
:1014C0001092DA006801CA94E1EE108288818F7769
:1014D000888388818068888388818F7D888319BC10
:1014E00010923105109264021092B80410926302B7
:1014F0007601EA94E0EE80818B7F80838881816031
:10150000888342E060E080E00E94C409F6018081A7
:101510008E7F8083E2EE808181608083808188601D
:101520008083E0EE80818E7F8083888180618883E4
:10153000CDB7DEB7E8E00C94A02EE8EDF0E08081B6
:101540008E7F80831092E2001092DA001092E10008
:10155000A0EEB0E08C9181608C9380818F77808346
:1015600019BCA7ED8C918E7F8C9380818F7E8083B8
:1015700010926502089528E030E043E060E086E3E1
:101580000E94A32A089525982D9A869A8E9885E020
:101590008A95F1F7000083B186988E9A90EA9A9521
:1015A000F1F7002485FF0394802D08958091320582
:1015B000811115C088EC90E02091E30027FD16C052
:1015C000EFE3FCE93197F1F700C000000197A1F7C4
:1015D00082E0809332050E949D0A1092310581E0DD
:1015E00090913205913031F080E0089581E0809350
:1015F0003205F5CF08950E94D60A811519F00E9490
:10160000470908950E9447092091500530915105DE
:101610004091520550915305620F731F841F951F0F
:1016200008950E94D60A811561F0E0915605F09167
:101630005705309729F00190F081E02D0995089524
:1016400080E00895A8E0B0E0E8E2FBE00C94882E8A
:1016500089839A836B837C834D835E838091370576
:101660000AE010E08A3010F001E010E021E02F8362
:1016700018866B817C8189819A81ED81FE81099533
:1016800081111BC02F8138852F5F3F4F2F833887F3
:101690000217130794F0C901889F9001899F300DAC
:1016A000300D112480E090E045E34A95F1F7000009
:1016B000019682179307C1F7DCCF2896E4E00C94DB
:1016C000A42E0F931F93CF93DF93EB018A01909188
:1016D0003105943061F58093E9008FEF9091E80037
:1016E00095FD06C095ED9A95F1F700008150B1F790
:1016F0008091E80085FF1BC00E94130A811112C06F
:101700008091E80085FD06C08091E8008E77809387
:10171000E800F2CF88818093F1000150104011F071
:101720002196EECF8091E8008E778093E800DF91DC
:10173000CF911F910F910895CF93DF93EC0148E073
:1017400050E0BC0181E00E94610B88E0FE01AEE642
:10175000B2E001900D928A95E1F7DF91CF91089563
:1017600046E050E0BC0182E00E94610B089543E036
:1017700050E0BC0182E00E94610B0895A1E0B0E05E
:10178000E4ECFBE00C948A2E89830E94BB0A8981D9
:101790000E94152B8FE792E00197F1F700C000003F
:1017A0000E94352B898395E09A95F1F700000E94FD
:1017B000552B85E68A95F1F700001092560689812F
:1017C0002196E2E00C94A62EA2E0B0E0EAEEFBE067
:1017D0000C948A2E89836A830E94BB0A898180685F
:1017E0000E94152B8A810E94152B8AEB8A95F1F7AE
:1017F00000C00E94552B83E492E00197F1F700C0EE
:1018000000002296E2E00C94A62E682F893708F09B
:1018100068E76093A40191E09093A50190919901EC
:10182000911539F06150811101C065E08FE00E948F
:10183000E40B08952091A401211101C026E0982F06
:10184000990F990B820F911D181619060CF081E063
:101850000E94050C0895FB0180810E94050C0895EB
:10186000ACE0B0E0E6E3FCE00C94842E4F835887B4
:10187000062F6987172F7A878B879C87809199011C
:10188000811509F442C080915606811107C060E0BD
:1018900080E50E94E40B81E0809356060E94BB0A1B
:1018A00080E50E94152B2AEB2A95F1F700C00E94D3
:1018B000352B0E94352B0E94352B7C010E94352B45
:1018C000F82A0E94352B6C010E94352BD82A0E94E1
:1018D000552B35E03A95F1F70000F894B701809167
:1018E0009C0190919D010E94A80480939C0190937B
:1018F0009D01B60180919E0190919F010E94A804D4
:1019000080939E0190939F0178940E94D60A81153E
:1019100009F470C00E944709C0904D06D0904E0651
:10192000E0904F06F09050069B01AC012C193D0948
:101930004E095F0969017A0138E0C316D104E10458
:10194000F10408F457C060934D0670934E068093DF
:101950004F0690935006C090A701D090A801E09048
:10196000A901F090AA016C197D098E099F096233C3
:1019700071058105910580F410929C0110929D01E2
:1019800010929E0110929F011092A0011092A1014D
:101990001092A2011092A301E090A6010E94C30A36
:1019A000F82EE114F1F1482FBE01695F7F4F8CE9F9
:1019B00091E00E94F304D090A601E09099010E946A
:1019C000C30A91E0F82EF926DE1409F449C04F2D20
:1019D000BE01695F7F4F80EA91E00E94F3040987AE
:1019E0001A8786E0FE013796A1EBB1E001900D92D7
:1019F0008A95E1F709871A8786E0FE013796DE01AE
:101A0000119601900D928A95E1F729813A814B81D7
:101A10005C816D817E8180E090E02C96E8E00C9402
:101A2000A02E8CE991E00E94440580919E01909146
:101A30009F010E94BD04082F80919C0190919D01FF
:101A40000E94BD04182FF11411F001951195109208
:101A50009C0110929D0110929E0110929F01ABCFAC
:101A600080EA91E00E9444058091A2019091A30137
:101A70000E94BD04082F8091A0019091A1010E94B5
:101A8000BD04182FF11411F0019511951092A001C9
:101A90001092A1011092A2011092A301A0CFA2E086
:101AA000B0E0E5E5FDE00C948A2E0E949B2A269A80
:101AB0000E94BB0A6AE58AE30E94E40B2FEF80E7ED
:101AC00092E0215080409040E1F700C0000082E0A9
:101AD0000E94BE0B83E00E94BE0B84E00E94BE0BFE
:101AE00085E00E94BE0B86E00E94BE0B60E080E1B4
:101AF0000E94E40B80E00E94BE0B898381E00E947B
:101B0000BE0B8A830E94552B2981223469F48A8175
:101B1000813051F48093990165E08FE00E94E40BDD
:101B20002296E2E00C94A62E10929901F9CF9091A2
:101B3000C6058091A602981308C08091C70581153B
:101B400061F09091A702891741F0E0915605F0915C
:101B50005705309799F581E019C08091C805811526
:101B600021F09091A8028913F0CF8091CA058115C8
:101B700021F09091AA028913E8CF8091C9058115BF
:101B800029F09091A9028913E0CF80E02091C60549
:101B900096E0E5ECF5E0DF01392F1D923A95E9F783
:101BA0002093C605A5EAB2E001900D929A95E1F75F
:101BB00091E0211101C090E0892B089582E080938B
:101BC000C5050480F581E02D85EC95E00995C3CF2E
:101BD000815D883088F44091C60521E030E0F9014C
:101BE00001C0EE0F8A95EAF78E2F611531F04E2B6A
:101BF0004093C6050E94970D089580954823F8CF1D
:101C0000E2E7F1E083E0DF011D928A95E9F7EEE675
:101C1000F1E084E0DF011D928A95E9F70895909143
:101C20006901981721F0809369010E94000E0895C0
:101C300020916B0130916C012817390731F08093A6
:101C40006B0190936C010E94000E0895CF93C82FF2
:101C50008091B901811511F085FD0CC0C11531F0DD
:101C6000C5FF04C01092BA011092BB01C093B90124
:101C7000CF910895C11511F0C5FDF8CF80E395E728
:101C80000E94180EEFCFA1E0B0E0E9E4FEE00C9472
:101C90008A2E89830E94260E898180934B06219685
:101CA000E2E00C94A62E21E001C0220F8A95EAF70B
:101CB00080914B06822B0E94430E089521E030E074
:101CC000A90101C0440F8A95EAF7842F809590916D
:101CD0004B0689230E94430E08959091CF0580956D
:101CE00089238093CF05282F277069F4891759F02D
:101CF0009091D10592FF07C08695869586950E94A2
:101D00005E0E1092CF0508959091D10592FB222787
:101D100020F9281779F080FB92F99093D105609112
:101D2000D0057091D10584E090E00E94462F82E0BA
:101D30000E946D0E089585E00E941006811559F0ED
:101D400085E00E945E0E80E395E70E94180E1092D7
:101D5000BA011092BB01089580914C069091D20572
:101D6000892B80935A029091CD05911591F0892B82
:101D700080935A0220E08CE592E0FC0130810196CC
:101D800031112F5F32E082369307B9F7211110929B
:101D9000CD0548E050E068E575E08AE592E00E94F4
:101DA000EE2E892BA9F088E0EAE5F2E0A8E5B5E09F
:101DB00001900D928A95E1F7E0915605F091570553
:101DC000309731F00280F381E02D8AE592E00995A9
:101DD0000895811521F00E9494060E94AC0E08958A
:101DE000811539F090914C06982B90934C060E94E7
:101DF000AC0E08950F931F93CF93C82F811549F10F
:101E00008CEF8C0F813AB8F50CE512E0F801808177
:101E1000C81719F1319622E0E236F207C1F7EFEF69
:101E200080E0D8019C91C91791F00F5F1F4FEF3FE1
:101E300019F4911101C0E82F8F5F863091F7EF3FC1
:101E400031F0FE2FFF0FFF0BE65AFD4FC2830E94B9
:101E5000AC0ECF911F910F910895ECE5F2E08191C6
:101E6000C81302C0DF011E9232E0E236F307B9F771
:101E70000E94AC0ED4CF80E28C0F883060F4C77023
:101E800081E001C0880FCA95EAF7C0914C06C82BC3
:101E9000C0934C06DCCF8BE58C0F833038F42C2FAD
:101EA0002452330BC9010E94FD08D3CFE8E5EC0FA3
:101EB000EB3150F4F0E0EE0FFF1FEA5EFD4F808142
:101EC00091810E942209C5CF83E38C0F833108F6EC
:101ED00061E08C2F0E94E80DBCCF8115D1F19CEF01
:101EE000980F913A70F4ECE5F2E09191891302C0F9
:101EF000DF011E9292E0E236F907B9F70E94AC0EBC
:101F0000089590E2980F983058F4982F81E091FD51
:101F100084E090FD880F92FD82950E949406EECF9A
:101F20009BE5980F933028F480E090E00E94FD0834
:101F3000089598E5980F9B3128F480E090E00E9486
:101F40002209089593E3980F933118F460E00E94FA
:101F5000E80D0895A3E0B0E0E0EBFFE00C948A2EDA
:101F600089836A837B830E94FA0E8FE99FE0019741
:101F7000F1F700C000008A819B8101978A839B83CF
:101F8000892B99F789810E946D0F2396E2E00C94CA
:101F9000A62E811539F09091D205982B9093D205F9
:101FA0000E94AC0E0895811541F080959091D20564
:101FB00089238093D2050E94AC0E0895A3E0B0E07F
:101FC000E4EEFFE00C94882E8C016A837B839C01F5
:101FD000315081E03F3108F080E0880F89830E9412
:101FE000C90F802F0E94FA0E8FE99FE00197F1F749
:101FF00000C000008A819B8101978A839B83892B83
:1020000099F7802F0E946D0F89810E94D30F23962C
:10201000E4E00C94A42EECE5F2E086E0DF011D92F2
:102020008A95E9F780E090E00E94FD0880E090E06A
:102030000E9422091092D2050E94AC0E08951092BF
:102040004C060E940B102FEF84E39CE0215080404F
:102050009040E1F700C0000088E19AE00FB6F894E4
:10206000A895809360000FBE90936000FFCFAAE216
:10207000B0E0EDE3F0E10C94892E86E692E0FC01FD
:1020800001962091F100208322E08E369207B9F765
:1020900080916702893009F458C0C8F4823009F48D
:1020A000B5C0833009F484C0813081F18091E800AB
:1020B00083FFE9C080916602909167029A3008F030
:1020C000E2C0E92FF0E0E157FF4C0C94DF2E8A309C
:1020D00009F48BC08B3051F780916602813231F761
:1020E00080916A0290916B02892B01F78091E80040
:1020F000877F8093E8000E94F409809168028093B2
:10210000000110924C060E940B10D0CF8091660205
:10211000813A61F68091E800877F8093E8008091A2
:102120006A0290916B02892B61F060E080E090E0A0
:1021300070E00E946A098091E8008B778093E80044
:10214000B5CF68E08EE692E0F3CF809166028132EF
:1021500009F0ACCF80916A0290916B02029708F06F
:10216000A5CF8091E800877F8093E8008091E80008
:1021700082FF19C02091F3008091F200922F029704
:1021800031F48091F100813011F0863021F480919A
:10219000F100809376028091E8008B778093E800CD
:1021A0000E94F40983CF809131058111DFCF7ECF6A
:1021B00080916602813A09F079CF80916A0290910C
:1021C0006B02892B09F072CF8091E800877F8093A2
:1021D000E8008091E80080FFFCCF809100018093AF
:1021E000F1008091E8008E77D9CF8091660281322C
:1021F00009F05CCF8091E800877F8093E8000E941F
:10220000F409809169028093620250CF8091660246
:10221000813A09F04BCF8091E800877F8093E800F6
:102220008091E80080FFFCCF80916202D8CF803897
:1022300089F0823841F580916A028F70873018F5F5
:102240008093E9008091EB0085FB882780F910924C
:10225000E90006C08091B804880F90916302892B31
:102260009091E800977F9093E8008093F10010929E
:10227000F1008091E8008E7723C0811116C0809113
:102280006802813011F18091E80083FF0AC08091DB
:10229000E800877F8093E8008091EB008062809364
:1022A000EB00AA96E3E00C94A52E823061F78091B2
:1022B0006802811581F01092E9008091E800877F23
:1022C0008093E8000E94F409DECF933009F080E0AB
:1022D0008093B804F0CF80916A028F702FEF280F9F
:1022E000263088F68093E9002091EB0020FFE3CFB1
:1022F000933031F48091EB0080628093EB00DBCF70
:102300009091EB0090619093EB0021E030E0A90107
:1023100001C0440F8A95EAF74093EA001092EA0060
:102320008091EB008860E9CF8111ADCF10916802F8
:102330001F778091E3008078812B8093E300809168
:10234000E800877F8093E8000E94F4098091E8000C
:1023500080FFFCCF8091E30080688093E30083E0FE
:10236000111101C082E0809331058DCF80588230F9
:1023700008F089CF20916802309169022C3D53E02A
:10238000350791F583E08A838AE289834FB7F89411
:10239000DE01139620E03EE051E2E32FF0E050939F
:1023A0005700849120FF03C082958F703F5F8F702C
:1023B0008A30C0F0895C8D931D922F5F243169F7BC
:1023C0004FBF8091E800877F8093E8006AE270E069
:1023D000CE0101960E946A098091E8008B77809374
:1023E000E80051CF805DE7CF832F90E083309105E7
:1023F00019F160F48130910509F46CC082309105C7
:1024000009F041CF8BE3E9E8F1E029C020916A02AD
:1024100030916B028132910509F453C082329105EB
:1024200009F031CF2130310508F45CC009F02BCF21
:102430008BE7EAECF0E013C0822F90E0213099F1B5
:1024400082309105B9F1009709F01DCFEEEFF1E070
:10245000E4918E2FEEEFF1E0009709F414CF209174
:10246000E800277F2093E80020916C0230916D02F4
:102470008217930708F49C0140E021153105B1F55E
:10248000411134C08091E80082FDA6CF80913105D2
:10249000811509F4A1CF853009F49ECF8091E80021
:1024A00083FFF0CF99CFECEEF1E0E4918E2FECEECC
:1024B000F1E0D2CFE6EDF1E0E4918E2FE6EDF1E030
:1024C000CBCF2130310550F009F0DDCE89E0E4EBCF
:1024D000F1E0C5CF82E1E4ECF1E0C1CF89E0EBE9C6
:1024E000F1E0BDCF84E4E5E4F1E0B9CF80913105BE
:1024F000811509F471CF853009F46ECF8091E80021
:1025000083FD6ACF8091E80082FDBCCF8091E80016
:1025100080FFB3CF4091F3008091F200942F2115FA
:10252000310519F08830910550F041E0089709F025
:1025300040E08091E8008E778093E8009ECF449140
:102540004093F1003196215031090196E8CF80384F
:1025500009F099CE8091E800877F8093E800809110
:1025600064028093F10085CE81118DCE10916802B6
:10257000123008F088CE8091E800877F8093E800D1
:10258000109364020E94F409111581F084E0809395
:10259000310542E061EC81E00E94C40942E261EC55
:1025A00082E00E94C409809131056DCE8091E300E4
:1025B00087FDECCF81E0EBCFA5E0B0E0E2EEF2E109
:1025C0000C94882E2A833B830C831D83082F880F4D
:1025D000110B41155105B1F0F80133E0EE0FFF1F6B
:1025E0003A95E1F7EF5EFE4F818192818D519B4FCD
:1025F000E0812E2F30E04E17510508F49A01A90111
:102600000E94FB2EC8010E94E42D8983811501F1EF
:102610006C817D8161157105D9F0C80123E0880FB7
:10262000991F2A95E1F7FC01EF5EFE4F2381422FAF
:1026300050E06217710508F4AB018F5E9E4FFC01FC
:10264000648175816D517B4F8A819B810E94FB2E35
:1026500089812596E4E00C94A42EA4E0B0E0E3E3A5
:10266000F3E10C94882E4091D3045091D4046091EE
:10267000D5047091D6042FB7F8948091D704909127
:10268000D804A091D904B091DA042FBF841B950B14
:10269000A60BB70B11E084369105A105B10518F121
:1026A0000E94FB0ADC01CB010296A11DB11D8983AA
:1026B0009A83AB83BC8300E010E0980144E050E0D3
:1026C000BE016F5F7F4F82E00E94DC12182F8115E0
:1026D00051F00E9447096093D3047093D40480930F
:1026E000D5049093D604812F2496E4E00C94A42E74
:1026F000A7E0B0E0EEE7F3E10C94882E6E837F83D1
:1027000001E010E09E012B5F3F4F40E050E0BA0136
:1027100080E00E94DC12182F811509F454C040910A
:10272000DF045091E0046091E1047091E2042FB75E
:10273000F8948091D7049091D804A091D904B091D5
:10274000DA042FBF841B950BA60BB70B84369105BB
:10275000A105B10548F464E070E084EE94E00E94C5
:1027600085089D81891779F104E010E09E012F5FB3
:102770003F4F40E050E0BA0181E00E94DC12182F88
:1027800064E070E084EE94E00E9485089D819813D7
:1027900028C0111531F10E9447096093DF0470933E
:1027A000E0048093E1049093E20489819A81AB81F3
:1027B000BC818093DB049093DC04A093DD04B09390
:1027C000DE0481E00FC08091E4049091E504A091C3
:1027D000E604B091E70489839A83AB83BC8311112B
:1027E000E4CF80E04091DB045091DC046091DD0493
:1027F0007091DE04EE81FF81408351836283738395
:102800002796E4E00C94A42EA1E0B0E0EAE0F4E125
:102810000C94862E2091CE0429838091EC04E090C4
:10282000CF04F090D0040091D1041091D2049FB74E
:10283000F8944091D7045091D8046091D9047091D4
:10284000DA049FBF4E195F09600B710B44365105C6
:102850006105710520F490E028171906B1F000E039
:1028600010E09801AD01BE016F5F7F4F83E00E94D1
:10287000DC12811559F00E9447096093CF047093D0
:10288000D0048093D1049093D20481E02196E6E0B5
:102890000C94A22EA9E0B0E0E0E5F4E10C94862EC1
:1028A0008D83E62E4E835F83F22E088719878091F1
:1028B00037058A3028F080E02996E6E00C94A22EB5
:1028C0008D818830C4F319828A836B832C8363E003
:1028D00070E0CE0102960E9485088983E09239015A
:1028E000F0924C0100E010E0980144E050E0BE019D
:1028F0006F5F7F4F84E00E94DC128115E1F24E2D64
:1029000050E098016E817F8185E00E94DC12811584
:1029100091F2980141E050E0BE016B5F7F4F86E08D
:102920000E94DC12811539F20F2D2885398540E08F
:1029300050E0BA0187E00E94DC12BECFA4E0B0E014
:10294000E4EAF4E10C94862E89839A837B0164E6A1
:1029500070E088E70E94842B8B839C8309811A8115
:10296000E00EF11E2B813C8137FD0DC0F8018491F2
:1029700064E670E00E94F42B8B839C830F5F1F4FF3
:102980000E151F0579F70E94962C81E0EB81FC81E2
:10299000EF2B09F080E02496E6E00C94A22E8091C3
:1029A000B0048115F9F00E944709DC01CB01805A7F
:1029B0009541AF4FBF4F8093B1049093B204A09361
:1029C000B304B093B4048091CE0481110BC062E0D3
:1029D00070E081E492E00E949E14811519F081E07C
:1029E0008093CE0408958091B004811569F08091A0
:1029F000CE04811549F062E070E08FE392E00E941E
:102A00009E1481111092CE040895CF93DF93282F46
:102A100081E02A3019F02D3031F480E00E948815D1
:102A2000DF91CF9108958091AD029091AE0236E092
:102A3000FC01AEE9B2E001900D923A95E1F730EE7B
:102A4000320F343A08F456C026E0FC0111922A9560
:102A5000E9F7C091AD02D091AE0246E050E0BE0170
:102A60008EE992E00E94EE2E9E012F5A3240892B71
:102A700041F1C90145E0969587954A95E1F741E016
:102A800050E0BA0102C0660F771F8A95E2F7CB01CA
:102A90006091AB027091AC02862B972BB9016B5FF2
:102AA0007F4FE5E076956795EA95E1F702C0440F20
:102AB000551F6A95E2F7842B952B8093AB02909378
:102AC000AC022A5F3F4F4091B504642F70E0C9010A
:102AD0000E94662E481B463010F4240F311D323000
:102AE00010F020E030E021553D4F2093AD023093AF
:102AF000AE0296CF2052330B46E0429FB001439F77
:102B0000700D11246D5B7D4F50E00E94E52EA1CF2A
:102B1000CF93382FE091AD02F091AE02EF5AF24020
:102B20002091B504622F70E0CF010E94662E281B11
:102B3000822F311569F066E00E94B12EC82FC111B5
:102B400002C0CF910895C15080E20E940515F7CFD1
:102B50008E0F9F2F911D923010F080E090E08155F4
:102B60009D4F8093AD029093AE02EBCFCF93DF9356
:102B7000EC01FE018491811103C0DF91CF91089592
:102B80000E9405152196F5CF0F931F93CF93DF93E6
:102B9000EC01FC0101900020E9F78F0101501109BF
:102BA000C017D10728F0DF91CF911F910F910895A1
:102BB00089910E940515F4CF1F921FB61F92112410
:102BC0008F939F93AF93BF938091B704811113C0EC
:102BD0008091D7049091D804A091D904B091DA04DF
:102BE0004196A11DB11D8093D7049093D804A09362
:102BF000D904B093DA04BF91AF919F918F911F9048
:102C00001FBE1F9018952FB7F8948091D70490910C
:102C1000D804A091D904B091DA042FBF08959C0183
:102C20004FB7F8948091D7049091D804A091D9041B
:102C3000B091DA044FBF821B930B0895A0E0B0E07F
:102C4000E4E2F6E10C94842E8C01DC0114968C9164
:102C5000811509F4F1C161E0C8010E94C107EC01CE
:102C600080916901811509F467C0C032B2E5DB07C4
:102C700008F04FC0D23508F0AFC0D03508F03EC0E4
:102C8000D03408F0CEC0D03208F0D2C0C83ED10552
:102C900080F5C03ED10508F04AC0D80114968C9149
:102CA000811509F444C0CE010E94F4058111AEC023
:102CB000CE018D5C9109439708F4A8C00E94520888
:102CC000811135C0F8018581811561F080916A011B
:102CD0000E941006811521F080916A010E945E0E0B
:102CE0000E94000E0E940316809370019093710160
:102CF0001EC0CE0191509F31D0F0CFCFCE0145E024
:102D0000969587954A95E1F78F7090E020916A013A
:102D100079C0C038B2E5DB07C0F5C036E2E5DE07B2
:102D200008F05AC0C034F2E5DF0708F466C08091AD
:102D3000740187FD10927401C093AD01D093AE0170
:102D4000D8018D919D9112978093AF019093B0011E
:102D5000FE013497E533F10508F075C0E352F74FF3
:102D6000E49115968C9120EB811511F02E2FE0EB5C
:102D7000ACEBB1E080E090E03C913E135DC0875643
:102D80009E4FFC0123A37E018AC0C03C22E5D207EE
:102D900070F2CE01805C9245809708F07ECF209142
:102DA0006A018C2F8F7190E02817190609F0BFCFA8
:102DB000D80115968C910E947708F8018681807F52
:102DC000803509F0B4CF8581811529F18091740196
:102DD000815080937401ABCF20916A018C2F8F7149
:102DE00090E02817190609F0A2CFD80115968C910A
:102DF00081119DCF0E946C089ACF20916A018C2F7F
:102E00008F7190E02817190609F091CFF80185819C
:102E10000E9477088CCF0E946C08809174018F5FAC
:102E2000D8CFD80116968C91803110F48D2F6CCFAD
:102E3000F8018681803160CF119601968630910528
:102E400009F09ACFA0CFCE019052903318F40E948F
:102E50009B0E99CFC83ED105B0F4C03ED10508F411
:102E600092CFD80115968C91811509F48CCFEFCFB4
:102E7000FE01E154FE47E830F10508F08BC0E7564B
:102E8000FF4C0C94DF2ECE0180549E47099780F3AF
:102E9000CE019150EC2EF12C9F3108F074CFC70178
:102EA0000E94F405811105C0C7018D5C910943970B
:102EB00060F4F8018581811541F080E395E70E9477
:102EC000180E1092BA011092BB01D80115968C9180
:102ED000B9EDEB16F10408F0ECC0E1EDEE16F104EB
:102EE00008F0F9C0D80115968C918115A9F0CA3562
:102EF000BCE7DB0709F4B2C108F079C1C130FCE7D7
:102F0000DF0709F4A9C1C3302CE7D20709F49EC139
:102F1000C115DC4709F47CC1F801878190850097D1
:102F200009F4A0C10E949C06D82FC92FF801C580C2
:102F3000E680E2942FE0E2228091CF058770F1F0E5
:102F4000DC2CC114E1F0892F807F803451F080E2C5
:102F50008D0F883098F0E11004C0892F807E803278
:102F600069F08091D10582FF09C082E00E946D0E58
:102F70008091CF058770DD24D3948111D12CEC2F63
:102F8000E295EF70C03C08F0EBC1F0E0EF55FF4C6C
:102F90000C94DF2EF8018581811551F00E940316F3
:102FA0008093CB059093CC0581E00E94530934C0F7
:102FB0008091CB059091CC050E940F168639910522
:102FC000C0F480EE0E94FA0E8FE39CE90197F1F7BE
:102FD00000C0000081ED0E94FA0E81ED0E946D0F8D
:102FE000AFE3BCE91197F1F700C0000080EE0E944A
:102FF0006D0F80E0DACFF8018581811521F088EA34
:103000000E94FA0E09C088EA0E946D0F05C06EE1A9
:1030100070E089EA0E94AA0F8091CF05877061F065
:10302000D80115968C91811539F08091D10582FFD8
:1030300003C082E00E946D0ECDB7DEB7E8E00C94CD
:10304000A02E6EE170E08AEAE5CFD80115968C914A
:10305000811511F08EEAD4CF8EEAD6CF6EE170E002
:103060008BEAD8CF6EE170E08CEAD4CFF80185818D
:10307000811571F084EE0E94FA0E8FE39CE90197AE
:10308000F1F700C0000082E50E94FA0E82E5BCCF95
:1030900084EEBACFD80115968C91811529F080EE77
:1030A0000E94FA0E81EEACCF80EE0E946D0F81EE91
:1030B000ABCFF7E0EF16FEE7FF0691F0811509F4BC
:1030C00011CFF701FE57E031F10508F00BCFE355C2
:1030D000FF4C0C94DF2E682F8E2D0E94E80D02CF3E
:1030E0000E945309FFCE80E00E94050C1092AB01B4
:1030F00080E00E940F0E8AE892E00E94180E8CCFAA
:103100003091AB018091B7019091B80162E370E01A
:103110000E94662E8FEF860F6091AC016370409124
:10312000A40130FB47F93695337050916901550F72
:10313000550F532B880F880F880F582B70E08FE0A6
:1031400090E00E943A2F68CF81E00E941A0C64CF71
:103150008FEFFBCF8AE0F9CF86EFF7CF8091A60102
:1031600091E0892722CF8091AB01811104C086E0D4
:103170008093AB0151CF8F5F181654F081E0F8CFE8
:103180008091AB01811102C084E0F2CF8150F4CF75
:10319000883070F387E0ECCF81E08093AC013CCFC6
:1031A0001092AC0139CF82E0F8CF8091690191E0B3
:1031B00089270E940F0E30CF8091B7019091B801FE
:1031C000C296893E23E0920710F088EE93E0809348
:1031D000B7019093B80120CF8091B7019091B801C9
:1031E000C2978436910598F784E690E0F0CFCB350E
:1031F0008CE7D807A9F18091D105002482FF0394C0
:10320000802DCC35DC4709F087CE0E94840E84CE19
:1032100010924C060E940B10AFEFB4E3ECE0A1500B
:10322000B040E040E1F700C0000087E797E78093F7
:1032300000089093010888E19AE00FB6F894A895E9
:10324000809360000FBE90936000FFCF6FEF7FEF21
:1032500080E090E00E94462F0E941F1081E0D5CFB1
:1032600080E0D3CFD80115968C911597ED90FD9005
:10327000811569F0C7010E948F07C82F682FC70109
:103280000E942106B7018C2F0E9470074BCEC70108
:103290000E945706C82FF6CFFC2FFF70FF2EC031BB
:1032A00018F0F29490EFF922C114B9F0F11469F01A
:1032B00080E28D0F883010F0D11109C080914C064A
:1032C0008F2980934C060E94AC0E8D2F41C08091B7
:1032D000D2058F298093D205F6CF8D2F0E946D0FD6
:1032E000F114F1F180E28D0F883010F0D11104C09B
:1032F0008F2D0E94940606C0F0948091D2058F21F4
:103300008093D2050E94AC0E2BC02C2F2F70F22E72
:10331000C07FC03219F0F29480EFF822D13040F033
:1033200009F469C0C11409F475C0E114C9F1CDCF25
:103330008091D10582FD30C0C11469F0F11439F0DB
:1033400080914C068F2980934C060E94AC0E80E041
:103350000E94FA0E05C080E00E946D0FF110C8CFE8
:10336000D114A9F08091CF0580FD11C0F80115821C
:103370008695869586950E94530EC8010E941E165A
:103380008091CF058695869586950E945E0E60E0B9
:10339000C8010E94C10750CEC11499F0E11004C0C9
:1033A0008F2D0E94F00EDCCF31E0E312D9CF809157
:1033B000CD059F2D9823F91699F28F298093CD057D
:1033C000CFCFE110CDCF8F2D0E94E90E9091CD058A
:1033D0008F2D892329F08F2D809589238093CD050A
:1033E0008091CE059F2D982309F4BACFF094F8224E
:1033F000F092CE05B5CFC11429F086E0E81608F0AA
:10340000AFCFCECF95E0E91608F0AACF8F2D0E945E
:10341000E90EA6CFE114D1F3D93369F4AFEFB7EEDB
:10342000E3E0A150B040E040E1F700C000008D2F84
:103430000E946D0F95CFFFEF26E731E0F15020405D
:103440003040E1F7F2CF8C2F8695869583708130DE
:1034500060F009F085CF8D2F9C2F9370C11002C0B2
:1034600080E090E00E9422097BCF8D2F9C2F9370EB
:10347000C11002C080E090E00E94FD0871CF6C2D69
:103480008D2F0E94E80D6CCF8C2F8370A9F5C11091
:1034900028C08D2F829586958770880F880F4D2FB5
:1034A0004F70082E01C0440F0A94EAF72D2F2071A7
:1034B000D4FF06C02FE001C0220F8A95EAF72095BD
:1034C000C695C695C370C23091F0822F842BC3304D
:1034D00031F080914A06C13039F0242B82230E94BA
:1034E0000D060E94110B3CCF842B822BF8CF242B8E
:1034F00080914A068227F3CFC11459F1C0FFF1CF62
:103500008D2F829586958770880F880F4D2F4F706D
:10351000082E01C0440F0A94EAF72D2F2071D4FF22
:1035200006C02FE001C0220F8A95EAF72095C695C4
:10353000C695C370C23099F0822F842BC33031F00E
:1035400080914B06C13041F0242B82230E94430E10
:10355000C8CF823030F2D4CF842B822BF7CF242BEC
:1035600080914B068227F2CFCF70C11439F08C2F97
:103570000E94530E8D2F0E94F00EB3CF8D2F0E940C
:10358000E90E8C2F0E945E0EACCFD23F89F170F411
:10359000D03FC9F0D13F91F0C11409F45CC0E114EF
:1035A00009F456C08D2F0E94FA0E9BCFD33F39F1FC
:1035B000D43F91F78091D10582FD2CC08C2F8F7163
:1035C000C11401F319C0C11481F085E0E81608F0B8
:1035D00088CFCF7181E090E0DC0101C0AA0FCA95CD
:1035E000EAF780914B068A27B1CFB6E0EB16EFCF12
:1035F0008C2F8F71C110C6CF0E94530E72CF80E006
:10360000C11409F4A3CFCF7181E001C0880FCA951E
:10361000EAF79CCFC11489F0CF718C2F0E94530E12
:103620008091D10582FF07C08C2F880F880F880FEB
:1036300083608093CF058C2FDFCF81E00E946D0ED9
:10364000E2E0EE1608F44DCF82E00E946D0E49CF05
:103650008C2F8F71D1CFE114B9F0D93369F4FFEF1A
:1036600027EE33E0F15020403040E1F700C0000089
:103670008D2F0E946D0F35CF8FEF96E7A1E081501F
:103680009040A040E1F7F2CF8C2F8F717BCF8091DB
:10369000B005803170F48091AF05811551F0E09153
:1036A0006105209160053091AB054091AA052E136C
:1036B00001C00895BF0189E0E89FF0011124DF01F6
:1036C000AE59BA4F14968C911497811561F11196E9
:1036D0008C911197831327C08C91841324C0159665
:1036E0008C91159781111FC012968D919D91A0917B
:1036F000AC05B091AD058A1B9B0B8639910598F4FA
:103700008091B0058F7080618093B005E859FA4FC1
:1037100080818F70806180838AEA95E00E941E1606
:103720000E948A060895FB013196E770C0CFAFE092
:10373000B0E0EDE9FBE10C94822E8C0186E0F8010B
:10374000DE011A9601900D928A95E1F7D80115963F
:10375000FC90EE90C090AE05C11021C0E114E1F0E4
:10376000F11409F47CC1C8010E94FC07811509F419
:1037700076C189E0F801AAEAB5E001900D928A9538
:10378000E1F7B1E0EB1206C08091AA059091AB057C
:103790000E94E8070E94471BEE24E3943EC0F80114
:1037A0009081A280B380D090AF052091AC0530917C
:1037B000AD05A501421B530BD11409F418C14639BC
:1037C000510508F0ECC0E11439F33091AB052181CB
:1037D0008091B005803108F095C0EF2C231322C0F2
:1037E0003091AA0539131EC06091B1057091B205E0
:1037F0004781508564177507A9F4F1101AC08F70BE
:1038000080618093B0058AEA95E00E941E1680913F
:10381000B005D80116968C93E12C8E2D2F96EAE0F8
:103820000C949E2E8091610530916005E82FF11473
:10383000C9F08091B00581608093B005EDCFAF01F4
:10384000B9E0EB9FF0011124EE59FA4F6181261384
:1038500006C06081961303C06581611119C0FA0129
:103860003196E770E313EBCF38131EC08A859B8532
:103870000E94E807292F22952F70903448F12A5F83
:103880002F702230C8F1C8010E941E16ED2CC5CF42
:103890008AEA95E00E941E1689E0EAEAF5E0DF0177
:1038A0001D928A95E9F7B8CFAC01B9E08B9FF00182
:1038B0001124EE59FA4F8181281306C08081981394
:1038C00003C085818111A8CF4395842F8770CCCF09
:1038D0009F70223038F0911551F0F80196819031A7
:1038E00030F49BCF911519F0811509F496CF805EC5
:1038F000883008F492CFC7CF803F08F48ECF815F25
:103900008330F7CF231320C02091AA0529131CC0B0
:103910004091B1055091B205D80117962D913D9176
:1039200019974217530781F4F1100EC016968C9325
:10393000C8010E941E1689E0F801AAEAB5E00190CC
:103940000D928A95E1F728CFC8010E94FC078115E6
:1039500009F485C0F11409F482C08091B005803269
:10396000A8F02091AA053091AB0529833A83AB8258
:10397000BC82CD821E828F838091B1059091B20569
:1039800088879987CE0101960E941E1689E0F8016A
:10399000AAEAB5E001900D928A95E1F7FBCE8091FD
:1039A000B005803108F474CFE11409F4F5CE3091FC
:1039B000AB0521813213C8CF2091AA052913C4CFAA
:1039C0004091B1055091B2052781308542175307C8
:1039D00009F0BACFF110B8CF8683C8010E941E1635
:1039E00089E0AAEAB5E01D928A95E9F7D5CE463975
:1039F0005105C8F5E11409F4CFCEF11481F12091FD
:103A0000AB058181281321C08091AA0589131DC0AF
:103A10002091B1053091B20587819085281739072B
:103A2000A1F49091B00590FD86CF903108F483CF3A
:103A3000892F9683907F903F09F47ACF982F907FBB
:103A4000905F8F70892B868373CFC8010E94FC071B
:103A500081119CCF8091B00581608093B005C80131
:103A60000E941E1699CE89E0AAEAB5E019CFA2E11C
:103A7000B0E0EDE3FDE10C94882E0A871B872C87CC
:103A80003D874E875F87688B798B8A8BCE010A963C
:103A90000E94971B811128C020916005309161051B
:103AA00089E0FE013A96DE01119601900D928A9509
:103AB000E1F78E858115C1F0822F90E083958770A4
:103AC00090E038171906D1F099E0929FD0011124A7
:103AD000AE59BA4FFE01319601900D929A95E1F7D9
:103AE000809360050E948A0680916105909160052F
:103AF000891314C06296E4E00C94A42E10924C0634
:103B00000E940B10109260051092610589E0EAEAAC
:103B1000F5E0DF011D928A95E9F7E6CFB9E08B9FCA
:103B2000C00111248E599A4F0E94971B811511F3E1
:103B3000209161052F5F3F4FC90187708093610518
:103B4000D3CFA0E0B0E0E7EAFDE10C94832E8091B2
:103B50004706811569F0C0917B028DE0C82ED12CFB
:103B600080914706C81748F01092470610927B02D2
:103B7000CDB7DEB7E9E00C949F2EBB24B394BC0E06
:103B8000B0927B02EC2EF12CCC9EE0011124C152AC
:103B9000DA4F8C818115E9F18F819885892B09F0A5
:103BA00060C009851A850F3F100709F45AC00E94AA
:103BB0009B0E02301105A1F150F40115110559F5C4
:103BC0006EE170E089E290E00E94DE0F06C00330F3
:103BD000110589F104301105C9F1CE9CF001CF9C8B
:103BE000F00D1124E152FA4F14821092D205D11037
:103BF0000EC0CE010E94FC0781110BC08FEF96E72B
:103C000021E0815090402040E1F700C00000DD2419
:103C1000D394CB2DA5CF6EE170E08BE290E0D4CFB2
:103C20006EE170E08FE292E00E94DE0F6EE170E0E4
:103C300080E392E0C9CF6EE170E086E292E00E94FC
:103C4000DE0F6EE170E087E292E0BECF6EE170E0E1
:103C50008FE290E00E94DE0F6EE170E080E390E082
:103C6000B3CF088119812A813B814C815D816E81AE
:103C70007F8188850E94371DB0CFA0E0B0E0E3E4EB
:103C8000FEE10C947C2EC091DE0597E0F92E01E058
:103C900010E08091DD058C1309C00E94A11D0E94D7
:103CA000C008CDB7DEB7E0E10C94982ED0E0FE015D
:103CB000EE0FFF1FED52FA4F80819181F89EB00107
:103CC000F99E700D11246B587E4FFB012481211148
:103CD0005EC060904706AFEDB5E040E050E0912C4B
:103CE000461508F052C01B964D905D901D97FB0144
:103CF000A080B18077247A94872CE12C2E2D30E09F
:103D0000F501EE0DF11DEE0DF11DC590D4904C1492
:103D10005D0411F0272D382DC114D10421F0E39456
:103D2000722E832EEBCF2F3F3207B9F1F80101C07D
:103D3000EE0F2A95EAF79E2A98010E2C02C0220F58
:103D4000331F0A94E2F7215031099216130611F538
:103D50002DE0249FF001259FF00D1124E152FA4F30
:103D6000F89ED001F99EB00D1124AB58BE4F1296AB
:103D70002D913D912783308724E024831082118286
:103D800081879287E1E01196EC930E94D108C39558
:103D9000C3707FCF14961C9214974F5F5F4F1D9690
:103DA0009FCF109248061092490610929801809178
:103DB000DD058093DE050E94C0080E94A11D0895C4
:103DC000ACE1B0E0E6EEFEE10C947A2E4B8B5C8B1E
:103DD0006D8B7E8B8F8B592E988F91111092D205FF
:103DE000188A198A1A8A86E0FE017396DE011A96ED
:103DF00001900D928A95E1F74F88411489F04E8623
:103E00005F8661E0CE010A960E94C1075C018035A1
:103E10002CE7920791F4511419F181E080939801F5
:103E20004E865F860A851B852C853D85A2016889A3
:103E300079898A890E94371DC2C081353CE7930782
:103E400029F4511469F00E94D11EEACF82359C47B3
:103E500039F4511429F0809198018111F4CFDDCF0C
:103E600045E7E42E41E0F42E312C812C912C3401D5
:103E70006394D7012D913D916FEF80E09FEFC82EA5
:103E8000D12CF901E80FF11DE80FF11D4591549176
:103E9000A416B50611F0C62ED92E452B21F08F5F42
:103EA0006C2D9D2DECCF10E0BFEFCB16DC0409F498
:103EB00045C0F701448110919801411110E0D701EC
:103EC00015962D909C911697511409F4FDC011156B
:103ED00009F4FAC0211015C021E00C2C01C0220FFA
:103EE0000A94EAF7922B16969C932091DB05309169
:103EF000DC052233310528F422E32093DB05109200
:103F0000DC05F30102C0EE0FFF1F8A95E2F7CF0137
:103F10000197D70116962C912817190679F48091EC
:103F2000480690914906009709F44DC00E940F166B
:103F3000C39708F448C081E0F7018483312ABFEFBA
:103F40008B1A9B0AE7E0EE0EF11CF5E08F16910448
:103F500009F08FCF511409F413C1311409F410C1C1
:103F60000E94031680934806909349068091470665
:103F7000883028F591E0980F9093470699E0FE016C
:103F80003A96DE01119601900D929A95E1F74D82D5
:103F90005E822DE0829FC001112481529A4F29E058
:103FA000FE013196DC0101900D922A95E1F72FEF89
:103FB0003FEFDC0119962D933D93AD92BD926C9627
:103FC000E2E10C94962E0091DE059091DD05802FA4
:103FD000E0E0F0E0091709F448C0A02FB0E0FD01CF
:103FE000EE0FFF1FED52FA4F2081318147E0429FD3
:103FF000F001439FF00D1124EB58FE4F6081718159
:104000006B8F7C8F212CC12CD12CEB8DFC8DEC0D7A
:10401000F11DEC0DF11D4591549141155105E1F053
:10402000F7010190F081E02DE98FFA8FD12C07C0C4
:10403000E1E04617570709F0E0E02E2AD394E98D16
:10404000FA8DED0DF11DED0DF11D65917491611568
:10405000710571F7C394D9CF211499F1DC14C8F418
:10406000E1E0D7011496EC93F7018093DE05EE159D
:10407000FF0509F463CF892F90E0FC01EE0FFF1FCD
:10408000ED52FA4F80829182019683708093DD0514
:1040900055CF47E0429FF001439FF00D1124EB58AC
:1040A000FE4F51E05483EE15FF05F9F2081304C0EA
:1040B0009C012395822F83709D012395022F03700D
:1040C00089CFE0E0F0E0F8CF292F30E0211020C0C8
:1040D000B30102C0660F771F8A95E2F7CB01019703
:1040E0008217930779F010E0F30102C0EE0FFF1F73
:1040F000CA94E2F76F01C094D70116968C918C2177
:104100008C931CCF411581F3C4010E94D108EBCFE1
:10411000A9010C2C02C0559547950A94E2F7C901F4
:10412000019782239323892B41F540FF26C0D701B5
:1041300012968D919D91892BD9F0FE01319687E0E1
:10414000DF011D928A95E9F70E9403169C018B837B
:104150009C8384E08D83F70192818381792F9887F6
:10416000898709811A8144E05E816F810E94371D31
:10417000D70115961C92122DB7CF142F1170B4CF02
:104180009091DE058091DD05981729F00E943D1E73
:10419000311015CF45CE0E94A11D109248061092F5
:1041A00049060E94C008F4CFA6E0B0E0EAEDF0E2D4
:1041B0000C94882E0E9403168C01809154059091D6
:1041C00055058017910779F019821A820E9403160B
:1041D000BC0149815A8180E090E00E94E01E00937A
:1041E0005405109355052696E4E00C94A42EAEE0F9
:1041F000B0E0EDEFF0E20C94852EFE01319688E000
:10420000DF011D928A95E9F786EDE82E81E0F82E10
:104210008F01ED871E87F70181917F018F3F09F4A0
:104220003FC0F894E82FE295EF70F0E021A18F7085
:1042300041E001C0440F8A95EAF7842F922F942B16
:1042400091A392A18095892382A3789400C0EAED7E
:10425000F1E031E0D12C21912F3F79F0A22FA295EE
:10426000AF70A05EB0E08C9190E02F7002C0959589
:1042700087952A95E2F780FF2CC080E0D82A330F7B
:1042800080EE91E08E179F0731F7F70182918F3F03
:1042900011F00E94310890EA9A95F1F7D801DC926A
:1042A0000F5F1F4FEAEDF1E0EE15FF0509F0B3CF08
:1042B00048E050E06D857E8588E495E00E94EE2E12
:1042C000892B49F480913E058115B9F1009147058C
:1042D00016C0832FD3CF88E0ED85FE85A8E4B5E036
:1042E00001900D928A95E1F70091470581E0809356
:1042F0003E050E94031680933C0590933D058091F6
:104300003C0590913D050E940F160597B0F010E016
:10431000015C1A4F44E050E068E475E0C8010E9477
:10432000EE2E892B41F084E0E8E4F5E0D80101901D
:104330000D928A95E1F710923E050E94D60A0091EF
:10434000470510E0015C1A4F811509F470C07E0129
:10435000F9E0EF0EF11C84E0D7011D928A95E9F790
:10436000809137058A3078F548E753E1B701C801F5
:104370000E94220B811509F448C04DE253E1B701B8
:10438000C8010E94220B811509F43FC044E054E1AA
:10439000B701C8010E94220B8115B9F110923705AF
:1043A00080913B0590E044E050E0B701815C9A4F7A
:1043B0000E94EE2E21E020933A05892BC1F42E961F
:1043C000E7E00C94A12E80913805909139050E9468
:1043D0000F16843F914040F680913A05811579F39C
:1043E00084E0F70111928A95E9F710923A05E0917D
:1043F0003B05F0E0E15CFA4F89859A85AB85BC8589
:1044000080839183A283B383DACF809137058F3F76
:1044100039F40E9403168093380590933905DCCF58
:104420008F5F809337058A3008F4BACFF2CFF80156
:1044300080819181A281B3818093E4049093E5040B
:10444000A093E604B093E70464E070E084EE94E0A7
:104450000E9485088093E304E090E804F090E9046A
:104460000091EA041091EB0480913305909134059A
:10447000A0913505B0913605E816F9060A071B0725
:10448000D1F0E0923305F092340500933505109396
:1044900036050E94D60A81110EC00E944709E61A0D
:1044A000F70A080B190BE0925005F09251050093A2
:1044B0005205109353058091EC04811519F00E9468
:1044C000CF147DCF0E94F3147ACFAEE1B0E0EBE6DB
:1044D000F2E20C94872E4091C5055091C60560917B
:1044E000C7057091C8058091C9059091CA050E94C1
:1044F000300C2093C5053093C6054093C7055093F3
:10450000C8056093C9057093CA0586E0E5ECF5E03F
:10451000DE01179601900D928A95E1F786E0FE0183
:104520003796DE011D9601900D928A95E1F726E0FF
:10453000FE013D96CE010196DC0101900D922A9577
:10454000E1F726E0FC01A5ECB5E001900D922A957B
:10455000E1F726E0E5ECF5E0DE01599601900D92D9
:104560002A95E1F726E0FE017996DE011796019083
:104570000D922A95E1F73091A601282F1B8D0C8D05
:10458000311511F000E010E019870A8786E0FE017E
:104590003796A22FB92F01900D928A95E1F786E008
:1045A000E22FF92FDE01539601900D928A95E1F7E3
:1045B00086E0FE017396DE01179601900D928A95B2
:1045C000E1F786E0FE013796A5ECB5E001900D928B
:1045D0008A95E1F786E0E5ECF5E0DE0117960190BB
:1045E0000D928A95E1F7F0906901F11409F44FC03A
:1045F00080916E0190916F010E940F1620916D01C4
:104600002817190608F043C080917001909171013C
:104610000E940F1687399105D0F1812F87FD819572
:1046200007FD0195800F9927991F2091BA013091BC
:10463000BB01820F931F84309105A8F11092BA013B
:104640001092BB0180916B0190916C018033954772
:1046500021F080E395E70E94180EF09272010E940B
:104660005208811559F10E94031680936E019093B0
:104670006F01109270011092710180916A010E9485
:104680001006811104C080916A010E94530E0E949D
:10469000970D811102C08091A4021092A4026E961F
:1046A000E5E00C94A32E28858093BA019093BB017A
:1046B000FF24F3942111D1CFF12CCFCF80916A0147
:1046C0000E941006811519F380916E0190916F017F
:1046D0000E940F1620916B0130916C012817390749
:1046E000B0F680916A010E945E0E10926E011092E7
:1046F0006F01CDCF6F927F928F929F92BF92CF9298
:10470000DF92EF92FF920F931F93CF93DF9300D02E
:1047100000D0CDB7DEB78091B004811509F4B7C1E0
:1047200080919C0290919D020E940F16C29708F4FE
:10473000CDC00E94031680939C0290939D028FEA45
:1047400092E08093AD029093AE020E94D60A81154A
:1047500009F4BAC18BE092E00E94B61588EB0E9482
:1047600005158091B0010E94EC040E94051589EBAB
:104770000E9405158091AF010E94EC040E9405156E
:1047800088E092E00E94B6158091AD019091AE0153
:1047900054E0969587955A95E1F70E94EC040E94A3
:1047A00005158091AD010E94EC040E94051585E07D
:1047B00092E00E94B6158CEB91E00E94C4158AE24B
:1047C00092E00E94B6158091B3010E94C9040E9434
:1047D000C4158091B4010E94C9040E94C41580913F
:1047E000B6010E94C9040E94C4158091B5010E94BF
:1047F000C9040E94C41582E292E00E94B61580911D
:10480000A401811101C086E00E94C90401960E94A2
:10481000C4158EE192E00E94B6158091AC01813002
:1048200028F009F446C185E192E002C08BE192E0F4
:104830000E94B6158091A601811509F43DC183E35C
:1048400092E00E94B61581E192E00E94B615809137
:10485000AB01811101C085E0805D0E94051589E3EF
:1048600092E00E94B61521E0298389810E941006FA
:10487000811509F424C189810E94EC040E94051568
:1048800039813F5F3983383081F780E20E94051516
:1048900086E392E00E94B61580916901811509F4C2
:1048A00010C183E392E00E94B6158091B701909108
:1048B000B8016AE070E00E94662E862F0E94C9044B
:1048C00001960E94C41580E30E9405158091AB02F9
:1048D0009091AC02892B09F4C1C08091B00481157C
:1048E00009F4BCC08091AF048111B8C00E94CF14FC
:1048F0008091AB029091AC02009709F4AFC080FBAD
:10490000662460F8712C10E080FD0FC041E050E09B
:104910001F5F3A01012E02C0660C771C0A94E2F771
:10492000930128233923232B99F38091B60480FF28
:10493000E5C0912F990F990F990F37E0390F80E05B
:1049400023E09093030180930601309304012093A8
:10495000070124E630E047E050E061E071E088E7DD
:104960000E94292C892B09F079C030E2139FA00105
:1049700011248091B60480FFD2C0ECE7F2E080E21F
:10498000DF011D928A95E9F738EC832E31E0932EF2
:1049900004EC11E0D4018D914D01F80161918F017A
:1049A000640F752F711DE82FF0E0E458FD4F80E093
:1049B00090E027E0B22EB81ACC24C394082E01C090
:1049C000CC0C0A94EAF7DB01A155BD4FA983BA8349
:1049D000E12CA981BA81FD90A983BA83FC202B2DFB
:1049E0002E19277030E0BF2D022E01C0BB0F0A9494
:1049F000EAF7DB2E319521953109277001C0F69435
:104A00002A95EAF7DF282081D22AD082E39428E091
:104A1000E212DFCF019631968830910551F62CECE9
:104A200031E02815390509F0B5CF04E610E020E2A1
:104A300030E04CE752E060E488E70E945B2C892B71
:104A400069F4F301E095F0958091AB029091AC028E
:104A5000E823F923E093AB02F093AC028091CE04FB
:104A60008115A9F00E9447090091B1041091B20488
:104A70002091B3043091B404601B710B820B930B33
:104A80006F3F7F4F8F4F9F4710F40E94F3140F909A
:104A90000F900F900F90DF91CF911F910F91FF908A
:104AA000EF90DF90CF90BF909F908F907F906F900E
:104AB000089588E192E0BCCE80E392E0C2CE80EB24
:104AC000DDCE80E392E0EFCE80E8898382E092E061
:104AD0000E94B6159981905F9B838981A82FAF5F53
:104AE000A9830E940515B981EB81BE13F6CF80E042
:104AF0000E948815F981F03B49F7E8CE20E2129F29
:104B0000C0011124880F892F881F990B9195282F98
:104B1000912F9295990F90763FE1390F12CF415521
:104B20005D4F04E610E020E230E085CFCDB7DEB780
:104B30002D970FB6F894DEBF0FBECDBF85B7806846
:104B400085BF85B7806885BF84B7877F84BF0FB670
:104B5000F894A8958091600088618093600010921D
:104B600060000FBE80E890E00FB6F894809361007B
:104B7000909361000FBE8FE298E08093580290936B
:104B800059020E949D0A0E94440A8091E2008460BA
:104B90008093E200789480913105811599F080919D
:104BA000E9001091EC008F7010FB112717F9182BFA
:104BB0001092E9008091E80083FD0E9437101F7079
:104BC0001093E90082E084BD93E095BD9AEF97BD14
:104BD00080936E001092500510925105109252056C
:104BE000109253050E94C30A809308010E94D60ABE
:104BF00081110E94F22C809108018091080191E0BE
:104C00008927880F880F8093470594E0981B90931D
:104C10003B0506ED11E06AEDE62E61E0F62ED801C7
:104C20008D918D018F3F11F00E943108E016F10641
:104C3000B1F70AED11E050EEE52E51E0F52EF80146
:104C400081918F018F3F11F00E943108E016F1062B
:104C5000B1F788E0EFE3F5E0DF01C82E1D92CA94BA
:104C6000E9F7E8E4F5E0DF011D928A95E9F780E0D5
:104C700090E00E94122F863E9E4F09F462C066EEBD
:104C80007EEF80E090E00E94462F60E082E090E0BE
:104C90000E94282F60E083E090E00E94282F10926D
:104CA0004A0660E074E184E090E00E94462F60E0F4
:104CB00086E090E00E94282F6FEF87E090E00E944E
:104CC000282F60E070E0AB0188E090E00E943A2F6E
:104CD00060E084E290E00E94282F60E087E190E0AD
:104CE0000E94282F60E08CE090E00E94282F60E076
:104CF0008DE090E00E94282F19821A821B821C826C
:104D00001D821E821F82188648E050E068E170E034
:104D1000CE0101960E94182F60E070E0AB0180E2A6
:104D200090E00E943A2F60E070E0AB018FE090E0ED
:104D30000E943A2F60E070E0AB0183E190E00E94B6
:104D40003A2F82E090E00E94042F8093B90484E01F
:104D500090E00E94122F8093D0059093D10583E0BC
:104D600090E00E94042F0E940D0680914B060E9445
:104D7000260E0E94D60A91E08927880F8093B604F8
:104D800080E88093B5040E947E2B6BE070E082E3A4
:104D900096E00E949E14811509F43FC08091B604EC
:104DA00065E070E081FD21C18DE296E00E949E14D5
:104DB000811599F16DE070E08BE196E00E949E1400
:104DC000811559F10E944709DC01CB01805A9541B8
:104DD000AF4FBF4F8093B1049093B204A093B3043C
:104DE000B093B404EFEAF2E080E092E0DF019C01CE
:104DF0001D9221503040E1F7E093AD02F093AE02F6
:104E00008FEF9FEF8093AB029093AC0281E0809391
:104E1000B0048093CE041092AF040E94D60A811190
:104E200002C00E94F52C0E944F0D0E94D60A8111EB
:104E30002CC089ED95E080935701909358012EE0A6
:104E400020935201109253018EE2809355011092EB
:104E500056014EED55E040935F0150936001209361
:104E60005A0110925B0180935D0110925E014BE24A
:104E70005CE04093670150936801209362011092B7
:104E80006301809365011092660180E090E00E94CA
:104E9000122F863E9E4F79F58FE090E00E940C2FF6
:104EA000F62E172F082F862F8F770E94050C912F33
:104EB0009370990FF7FC91609093AB0112FB8827D8
:104EC00080F90E940F0E8AE892E0183068F0212FD6
:104ED00026952695269530E02F5F3F4F42E3429F6F
:104EE000C001439F900D11248093B7019093B801A6
:104EF00003700093AC0189E091E080935605909394
:104F0000570580913105853059F480913105853000
:104F100009F46EC010924C060E940B100E94110BF7
:104F20000E94F7200AEB14E0AFE3B5E0AB87BC8743
:104F3000ECECF1E0E987FA87BF019801F901919162
:104F40009F018C91FB014081842342ECC42E44E0FC
:104F5000D42EC216D30609F4A8C011966F5F7F4FF6
:104F6000981761F30E94D60A8D87E12CAB85BC852A
:104F7000FD90AB87BC87E985FA858191E987FA873F
:104F8000F822D801BD908D01BF1431F1BF24CC248B
:104F9000C394D12C8C2D8B21C1F0BD85B115A9F006
:104FA000D982EA820E9403168B839C83E1E0ED8321
:104FB00091E08C2D8F2109F490E09E8349815A81E4
:104FC0006B817C818D810E94E01ED394CC0CF6E035
:104FD000DF12E0CFF801F292E39488E0C82EEC10E3
:104FE000C5CF0E94FB0A11E065C088E296E0DECEE4
:104FF00080913105843041F10E94F3140E946522B2
:105000001092B70448E150E080E40FB6F894A895F8
:10501000409360000FBE8093600083B7817F8460FF
:1050200083BF83B7816083BF7894889583B78E7F71
:1050300083BF0FB6F894A895809160008861809333
:105040006000109260000FBE8091B804811509F4D1
:105050005CCF0E94F720EFE3F5E0ACECB1E027E491
:1050600035E080819C91892331F4319611962E1779
:105070003F07B9F74ACF80E189BD82E189BD09B414
:1050800000FEFDCF8091D8008F7D8093D800809165
:10509000E00082608093E0008091E00081FDFCCF21
:1050A00010924C060E940B1030CF98135BCF0E94D9
:1050B000D42010E00E94D60A811519F18091980140
:1050C0008115F9F080914806909149060097C9F042
:1050D0000E940F162091DB053091DC052817390757
:1050E00080F49091DE058091DD059817A9F00E946B
:1050F0003D1E1092DB051092DC05109248061092BE
:1051000049060E946522811581F00E94FB0A0E94D7
:105110007A230E94CF140DC00E94A11D1092480650
:10512000109249060E94C008ECCF0E947A23111108
:10513000F0CF0E94110B9091C204891721F0809347
:10514000C2040E9447090E94D60A811509F4D9CEEB
:105150000E9447092091C904211144C00091C5044F
:105160001091C6042091C7043091C8046B017C01E2
:10517000C01AD10AE20AF30A86019701043F1140DE
:105180002105310578F16093C5047093C6048093BE
:10519000C7049093C8048091C3049091C4040196FD
:1051A0008093C3049093C40419828E010F5F1F4F34
:1051B00021E040E050E060E088E00E944A14811164
:1051C00006C08091C3049091C4040A975CF081E00A
:1051D0008093C90480939A019981911101C080E064
:1051E00080939B0180919B01811509F48ACE0E94D6
:1051F00047096B017C018091CA049091CB04A09176
:10520000CC04B091CD049601A701281B390B4A0BA1
:105210005B0BC901DA010497A105B10580F1198280
:105220001A821B821C828E010F5F1F4F24E040E018
:1052300050E060E089E00E944A148115C1F0698164
:105240007A818091A0019091A1010E94A80480938D
:10525000A0019093A1016B817C818091A20190912A
:10526000A3010E94A8048093A2019093A301C0927D
:10527000CA04D092CB04E092CC04F092CD04809189
:10528000A501811509F43DCE8091A401898300E038
:1052900010E020E0AE014F5F5F4F61E08AE00E94C6
:1052A0004A14811509F42DCE1092A5012ACE7894C6
:1052B0001F921FB61F9211248F939F93AF93BF939A
:1052C0008091D7049091D804A091D904B091DA04C8
:1052D0000196A11DB11D8093D7049093D804A0938B
:1052E000D904B093DA04BF91AF919F918F911F9031
:1052F0001FBE1F9018951F920F920FB60F92112488
:105300002F933F934F935F936F937F938F939F93CD
:10531000AF93BF93EF93FF938091E10082FF09C0A9
:105320008091E20082FF05C08091E1008B7F809335
:10533000E1008091DA0080FF24C08091D80080FFD6
:1053400020C08091DA008E7F8093DA008091D900AE
:1053500080FF9BC080E189BD82E189BD09B400FE68
:10536000FDCF81E08093310580916502811109C0F4
:105370000E949D0A0E94440A8091E200846080930A
:10538000E2008091E10080FF17C08091E20080FF81
:1053900013C08091E2008E7F8093E2008091E20052
:1053A00080618093E2008091D80080628093D80071
:1053B00019BC85E0809331058091E10084FF29C00C
:1053C0008091E20084FF25C080E189BD82E189BD32
:1053D00009B400FEFDCF8091D8008F7D8093D80066
:1053E0008091E1008F7E8093E1008091E2008F7ECA
:1053F0008093E2008091E20081608093E2008091DE
:105400006402811509F447C084E0809331058091DE
:1054100031058091E10083FF27C08091E20083FF86
:1054200023C08091E100877F8093E10082E0809338
:105430003105109264028091E1008E7F8093E1003B
:105440008091E2008E7F8093E2008091E200806193
:105450008093E20042E060E080E00E94C409809115
:10546000F00088608093F000FF91EF91BF91AF91C1
:105470009F918F917F916F915F914F913F912F916C
:105480000F900FBE0F901F90189519BC1092310508
:105490001092650276CF8091E30087FF02C083E01F
:1054A000B4CF81E0B2CF1F920F920FB60F921124AA
:1054B000EF92FF920F931F932F933F934F935F931E
:1054C0006F937F938F939F93AF93BF93CF93EF93FC
:1054D000FF9309EE10E0F8018081C091EC008F701D
:1054E000C0FBCC27C7F9C82B1082E0EF8081877FF3
:1054F000808378940E943710F8011082E0EF808159
:1055000088608083CF70E9EEC083FF91EF91CF91E7
:10551000BF91AF919F918F917F916F915F914F91CB
:105520003F912F911F910F91FF90EF900F900FBE21
:105530000F901F901895289A219A229A23982B98B9
:1055400080E58CBD08959091C3019F3F09F06BC029
:105550008F3F09F468C06295660F607E60935806BD
:10556000423009F43FC0433009F440C06460413028
:10557000D1F141E050E042175307D0F19091580625
:105580004032510509F44AC0B0F54830510509F4DC
:1055900040C04031510509F43FC042305105A9F1E6
:1055A0009CB520915806922B9CBD90915706911561
:1055B00019F09DB591609DBD8093C301E82FE295E0
:1055C000EF70F0E031A1282F2F7081E001C0880F2B
:1055D0002A95EAF7382B31A392A18095892382A3DB
:1055E00081E00895686060935806C3CF6C60FBCF7C
:1055F000440F551FC0CF4034510599F09360403897
:10560000510571F690935806CBCF91E090935706D1
:10561000C7CF21E0209357069160F4CF21E020937B
:1056200057069260EFCF80E00895A2E0B0E0EBE192
:10563000FBE20C948A2E8EBD0E94031689839A8306
:105640000DB407FE06C08EB590E02296E2E00C9401
:10565000A62E0E94031629813A81821B930B843661
:10566000910570F38EEF9FEFF0CFA2E0B0E0EBE397
:10567000FBE20C948A2E1EBC0E94031689839A8337
:105680000DB407FE06C08EB590E02296E2E00C94C1
:10569000A62E0E94031629813A81821B930B843621
:1056A000910570F38EEF9FEFF0CF8091C3018F3F94
:1056B00021F1E82FE295EF70F0E041A18F7021E039
:1056C00030E0B90101C0660F8A95EAF7862F942F62
:1056D000962B91A392A1892B82A38FEF8093C30174
:1056E0008DB58E7F8DBD9CB58091580680958923A0
:1056F0008CBD109258061092570608951092B9006A
:105700008CE08093B8000895A4E0B0E0EAE8FBE202
:105710000C94852ED82E6B837C830E94031689837C
:105720009A832B813C8191E0E92EF12C24313105C3
:1057300060F085E0E82EF12C2F3F320731F0C901EF
:1057400064E170E00E94662E7B011092BC0094EA36
:105750009093BC000E9403168C018091BC0087FFCF
:105760000CC08091B900887F883009F18091B90020
:10577000887F8031E1F00FEF07C0C8010E940F164B
:10578000E816F90650F70EEF1FEF8B819C8101960A
:10579000E1F289819A810E940F162B813C812817A2
:1057A000390798F6C8012496E7E00C94A12ED09210
:1057B000BB0024E82093BC000E9403168C0180915A
:1057C000BC0087FF0AC09091B900987F983111F012
:1057D000903489F600E010E0E5CFC8010E940F1672
:1057E000E816F90660F7CFCFA4E0B0E0EAEFFBE2FD
:1057F0000C948A2E6B837C838093BB0084E8809317
:10580000BC000E94031689839A838091BC0087FFA5
:105810000FC02091B900287F81E090E0283209F480
:1058200080E09195819591092496E2E00C94A62E52
:105830002B813C812F3F3F4F41F389819A810E9408
:105840000F162B813C8128173907F8F68EEF9FEF52
:10585000EBCFA6E0B0E0EFE2FCE20C94882E6B8385
:105860007C838A0129833A83B9010E94842B9C019D
:105870008B818D839C819E83ED81FE810E0F1F1F86
:105880008D819E818017910719F02115310541F016
:1058900084E98093BC00C9012696E4E00C94A42E10
:1058A00069817A81ED81FE818191ED83FE830E9481
:1058B000F42B9C01E5CFA6E0B0E0E1E6FCE20C941D
:1058C000862E6D8349835A832B833C837801B801EC
:1058D0000E94842BAC01892BB9F4B8018D810E9400
:1058E000F42BAC0189818D839A819E830B811C816D
:1058F000ED81FE810E0F1F1F8D819E818017910704
:1059000019F04115510541F084E98093BC00CA01AA
:105910002696E6E00C94A22EB701ED81FE818191DE
:10592000ED83FE830E94F42BAC01E6CF84E98093E3
:10593000BC0008958EE14A9B02C08150E1F74A9B6A
:10594000FECF08955A9880E28A95F1F75A9A089501
:10595000FC012BE02A95F1F728E080E090E031E0AF
:1059600040E14A95F1F7880F4A9B02C08160932776
:1059700042E04A95F1F7000040E14A95F1F72150E5
:1059800079F720E12A95F1F729B132E03A95F1F75C
:10599000000040E14A95F1F731E022FD9327208194
:1059A000920F90830895A1E0B0E0E9EDFCE20C9441
:1059B000862E19828C017C01E60EF11C0E949A2C25
:1059C000CE0101960E94A82CF80181938F01EE155B
:1059D000FF05A1F781E09981911180E02196E6E031
:1059E0000C94A22E529A5A9A089552985A9AEA9A68
:1059F000E9E6F0E080818F7C808308956150770B29
:105A000091E001C0990F6A95EAF7692F90E021E0D3
:105A1000611108C0911591F05A9A80E28A95F1F7C8
:105A20005A980895362F382339F05A9A922730E23F
:105A30003A95F1F76695ECCF5A98F9CF5A98EDCF91
:105A4000A3E0B0E0E6E2FDE20C94882E8A839B831B
:105A50000A811B81060F111DEA81FB818191EA8376
:105A6000FB8389830E94A22C68E089810E94FE2C1E
:105A7000EA81FB81E017F10779F72396E4E00C94C3
:105A8000A42E1F920F920FB60F9211240F931F9303
:105A90002F933F934F935F936F937F938F939F9336
:105AA000AF93BF93EF93FF93CF93DF930F92CDB755
:105AB000DEB719820E949A2CCE0101960E94A82C72
:105AC000082F069506950695282F22952570902F6C
:105AD0009570920F292F237096959695920F98277F
